{
  "_format": "hh-sol-artifact-1",
  "contractName": "PurchaseEscrowPlatformV1",
  "sourceName": "contracts/PurchaseEscrowPlatformV1.sol",
  "abi": [
    {
      "inputs": [
        {
          "internalType": "contract IERC20",
          "name": "currencyToken_",
          "type": "address"
        },
        {
          "internalType": "contract SeaportInterface",
          "name": "seaport_",
          "type": "address"
        }
      ],
      "stateMutability": "nonpayable",
      "type": "constructor"
    },
    {
      "inputs": [],
      "name": "CallFailed",
      "type": "error"
    },
    {
      "inputs": [],
      "name": "EscrowNotExpired",
      "type": "error"
    },
    {
      "inputs": [],
      "name": "InvalidAddress",
      "type": "error"
    },
    {
      "inputs": [],
      "name": "InvalidCaller",
      "type": "error"
    },
    {
      "inputs": [],
      "name": "InvalidDuration",
      "type": "error"
    },
    {
      "inputs": [],
      "name": "InvalidOrderConduit",
      "type": "error"
    },
    {
      "inputs": [],
      "name": "InvalidOrderExpiration",
      "type": "error"
    },
    {
      "inputs": [],
      "name": "InvalidOrderHash",
      "type": "error"
    },
    {
      "inputs": [],
      "name": "InvalidOwnership",
      "type": "error"
    },
    {
      "inputs": [],
      "name": "InvalidPayment",
      "type": "error"
    },
    {
      "inputs": [],
      "name": "InvalidRepayment",
      "type": "error"
    },
    {
      "inputs": [],
      "name": "InvalidSignature",
      "type": "error"
    },
    {
      "inputs": [],
      "name": "InvalidStatus",
      "type": "error"
    },
    {
      "inputs": [],
      "name": "InvalidToken",
      "type": "error"
    },
    {
      "inputs": [],
      "name": "ListingIsPaused",
      "type": "error"
    },
    {
      "inputs": [],
      "name": "OrderCancellationFailed",
      "type": "error"
    },
    {
      "inputs": [],
      "name": "PanicOrderNotFulfilled",
      "type": "error"
    },
    {
      "anonymous": false,
      "inputs": [
        {
          "indexed": true,
          "internalType": "address",
          "name": "previousOwner",
          "type": "address"
        },
        {
          "indexed": true,
          "internalType": "address",
          "name": "newOwner",
          "type": "address"
        }
      ],
      "name": "OwnershipTransferred",
      "type": "event"
    },
    {
      "anonymous": false,
      "inputs": [
        {
          "indexed": true,
          "internalType": "uint256",
          "name": "escrowId",
          "type": "uint256"
        },
        {
          "indexed": false,
          "internalType": "address",
          "name": "lender",
          "type": "address"
        },
        {
          "indexed": false,
          "internalType": "address",
          "name": "buyer",
          "type": "address"
        },
        {
          "indexed": false,
          "internalType": "address",
          "name": "token",
          "type": "address"
        },
        {
          "indexed": false,
          "internalType": "uint256",
          "name": "tokenId",
          "type": "uint256"
        },
        {
          "indexed": false,
          "internalType": "uint256",
          "name": "principal",
          "type": "uint256"
        },
        {
          "indexed": false,
          "internalType": "uint256",
          "name": "repayment",
          "type": "uint256"
        },
        {
          "indexed": false,
          "internalType": "uint64",
          "name": "duration",
          "type": "uint64"
        }
      ],
      "name": "PurchaseEscrowCreated",
      "type": "event"
    },
    {
      "anonymous": false,
      "inputs": [
        {
          "indexed": true,
          "internalType": "uint256",
          "name": "escrowId",
          "type": "uint256"
        },
        {
          "indexed": false,
          "internalType": "enum IPurchaseEscrow.Marketplace",
          "name": "marketplace",
          "type": "uint8"
        }
      ],
      "name": "PurchaseEscrowDelisted",
      "type": "event"
    },
    {
      "anonymous": false,
      "inputs": [
        {
          "indexed": true,
          "internalType": "uint256",
          "name": "escrowId",
          "type": "uint256"
        }
      ],
      "name": "PurchaseEscrowLiquidated",
      "type": "event"
    },
    {
      "anonymous": false,
      "inputs": [
        {
          "indexed": true,
          "internalType": "uint256",
          "name": "escrowId",
          "type": "uint256"
        },
        {
          "indexed": false,
          "internalType": "enum IPurchaseEscrow.Marketplace",
          "name": "marketplace",
          "type": "uint8"
        },
        {
          "indexed": false,
          "internalType": "bytes",
          "name": "listingData",
          "type": "bytes"
        }
      ],
      "name": "PurchaseEscrowListed",
      "type": "event"
    },
    {
      "anonymous": false,
      "inputs": [
        {
          "indexed": true,
          "internalType": "uint256",
          "name": "escrowId",
          "type": "uint256"
        }
      ],
      "name": "PurchaseEscrowRepaid",
      "type": "event"
    },
    {
      "anonymous": false,
      "inputs": [
        {
          "indexed": true,
          "internalType": "uint256",
          "name": "escrowId",
          "type": "uint256"
        },
        {
          "indexed": false,
          "internalType": "enum IPurchaseEscrow.Marketplace",
          "name": "marketplace",
          "type": "uint8"
        }
      ],
      "name": "PurchaseEscrowSold",
      "type": "event"
    },
    {
      "anonymous": false,
      "inputs": [
        {
          "indexed": true,
          "internalType": "uint256",
          "name": "escrowId",
          "type": "uint256"
        },
        {
          "indexed": false,
          "internalType": "address",
          "name": "from",
          "type": "address"
        },
        {
          "indexed": false,
          "internalType": "address",
          "name": "to",
          "type": "address"
        }
      ],
      "name": "PurchaseEscrowTransferred",
      "type": "event"
    },
    {
      "inputs": [],
      "name": "IMPLEMENTATION_VERSION",
      "outputs": [
        {
          "internalType": "string",
          "name": "",
          "type": "string"
        }
      ],
      "stateMutability": "view",
      "type": "function"
    },
    {
      "inputs": [],
      "name": "cancelAllListings",
      "outputs": [],
      "stateMutability": "nonpayable",
      "type": "function"
    },
    {
      "inputs": [
        {
          "internalType": "uint256",
          "name": "escrowId",
          "type": "uint256"
        },
        {
          "internalType": "enum IPurchaseEscrow.Marketplace",
          "name": "",
          "type": "uint8"
        },
        {
          "internalType": "bytes",
          "name": "listingData",
          "type": "bytes"
        }
      ],
      "name": "cancelListing",
      "outputs": [],
      "stateMutability": "nonpayable",
      "type": "function"
    },
    {
      "inputs": [
        {
          "internalType": "uint256",
          "name": "escrowId",
          "type": "uint256"
        },
        {
          "internalType": "enum IPurchaseEscrow.Marketplace",
          "name": "",
          "type": "uint8"
        }
      ],
      "name": "checkListingStatus",
      "outputs": [
        {
          "internalType": "bool",
          "name": "filled",
          "type": "bool"
        }
      ],
      "stateMutability": "view",
      "type": "function"
    },
    {
      "inputs": [
        {
          "internalType": "bytes",
          "name": "data",
          "type": "bytes"
        }
      ],
      "name": "checkUpkeep",
      "outputs": [
        {
          "internalType": "bool",
          "name": "",
          "type": "bool"
        },
        {
          "internalType": "bytes",
          "name": "",
          "type": "bytes"
        }
      ],
      "stateMutability": "view",
      "type": "function"
    },
    {
      "inputs": [
        {
          "internalType": "address",
          "name": "buyer",
          "type": "address"
        },
        {
          "internalType": "contract IERC721",
          "name": "token",
          "type": "address"
        },
        {
          "internalType": "uint256",
          "name": "tokenId",
          "type": "uint256"
        },
        {
          "internalType": "uint256",
          "name": "principal",
          "type": "uint256"
        },
        {
          "internalType": "uint256",
          "name": "repayment",
          "type": "uint256"
        },
        {
          "internalType": "uint64",
          "name": "duration",
          "type": "uint64"
        }
      ],
      "name": "create",
      "outputs": [
        {
          "internalType": "uint256",
          "name": "",
          "type": "uint256"
        }
      ],
      "stateMutability": "nonpayable",
      "type": "function"
    },
    {
      "inputs": [
        {
          "internalType": "uint256",
          "name": "escrowId",
          "type": "uint256"
        },
        {
          "internalType": "enum IPurchaseEscrow.Marketplace",
          "name": "",
          "type": "uint8"
        },
        {
          "internalType": "uint256",
          "name": "consideration",
          "type": "uint256"
        },
        {
          "internalType": "uint256",
          "name": "expiration",
          "type": "uint256"
        },
        {
          "internalType": "uint256",
          "name": "salt",
          "type": "uint256"
        },
        {
          "internalType": "bytes",
          "name": "signature",
          "type": "bytes"
        }
      ],
      "name": "createListing",
      "outputs": [],
      "stateMutability": "nonpayable",
      "type": "function"
    },
    {
      "inputs": [],
      "name": "currencyToken",
      "outputs": [
        {
          "internalType": "contract IERC20",
          "name": "",
          "type": "address"
        }
      ],
      "stateMutability": "view",
      "type": "function"
    },
    {
      "inputs": [
        {
          "internalType": "uint256",
          "name": "escrowId",
          "type": "uint256"
        },
        {
          "internalType": "enum IPurchaseEscrow.Marketplace",
          "name": "",
          "type": "uint8"
        },
        {
          "internalType": "uint256",
          "name": "consideration",
          "type": "uint256"
        },
        {
          "internalType": "uint256",
          "name": "expiration",
          "type": "uint256"
        },
        {
          "internalType": "uint256",
          "name": "salt",
          "type": "uint256"
        }
      ],
      "name": "generateListing",
      "outputs": [
        {
          "internalType": "bytes",
          "name": "",
          "type": "bytes"
        }
      ],
      "stateMutability": "view",
      "type": "function"
    },
    {
      "inputs": [
        {
          "internalType": "bytes32",
          "name": "digest",
          "type": "bytes32"
        },
        {
          "internalType": "bytes",
          "name": "signature",
          "type": "bytes"
        }
      ],
      "name": "isValidSignature",
      "outputs": [
        {
          "internalType": "bytes4",
          "name": "",
          "type": "bytes4"
        }
      ],
      "stateMutability": "view",
      "type": "function"
    },
    {
      "inputs": [],
      "name": "lenderNoteToken",
      "outputs": [
        {
          "internalType": "contract IERC721",
          "name": "",
          "type": "address"
        }
      ],
      "stateMutability": "view",
      "type": "function"
    },
    {
      "inputs": [
        {
          "internalType": "uint256",
          "name": "escrowId",
          "type": "uint256"
        }
      ],
      "name": "liquidate",
      "outputs": [],
      "stateMutability": "nonpayable",
      "type": "function"
    },
    {
      "inputs": [],
      "name": "listingPaused",
      "outputs": [
        {
          "internalType": "bool",
          "name": "",
          "type": "bool"
        }
      ],
      "stateMutability": "view",
      "type": "function"
    },
    {
      "inputs": [
        {
          "internalType": "address",
          "name": "",
          "type": "address"
        },
        {
          "internalType": "address",
          "name": "",
          "type": "address"
        },
        {
          "internalType": "uint256",
          "name": "",
          "type": "uint256"
        },
        {
          "internalType": "bytes",
          "name": "",
          "type": "bytes"
        }
      ],
      "name": "onERC721Received",
      "outputs": [
        {
          "internalType": "bytes4",
          "name": "",
          "type": "bytes4"
        }
      ],
      "stateMutability": "nonpayable",
      "type": "function"
    },
    {
      "inputs": [],
      "name": "owner",
      "outputs": [
        {
          "internalType": "address",
          "name": "",
          "type": "address"
        }
      ],
      "stateMutability": "view",
      "type": "function"
    },
    {
      "inputs": [
        {
          "internalType": "bytes",
          "name": "performData",
          "type": "bytes"
        }
      ],
      "name": "performUpkeep",
      "outputs": [],
      "stateMutability": "nonpayable",
      "type": "function"
    },
    {
      "inputs": [
        {
          "internalType": "uint256",
          "name": "escrowId",
          "type": "uint256"
        },
        {
          "internalType": "enum IPurchaseEscrow.Marketplace",
          "name": "",
          "type": "uint8"
        }
      ],
      "name": "processSale",
      "outputs": [],
      "stateMutability": "nonpayable",
      "type": "function"
    },
    {
      "inputs": [
        {
          "internalType": "uint256",
          "name": "escrowId",
          "type": "uint256"
        }
      ],
      "name": "purchaseEscrows",
      "outputs": [
        {
          "components": [
            {
              "internalType": "enum IPurchaseEscrow.PurchaseEscrowStatus",
              "name": "status",
              "type": "uint8"
            },
            {
              "internalType": "contract IERC721",
              "name": "token",
              "type": "address"
            },
            {
              "internalType": "address",
              "name": "buyer",
              "type": "address"
            },
            {
              "internalType": "uint256",
              "name": "tokenId",
              "type": "uint256"
            },
            {
              "internalType": "uint256",
              "name": "principal",
              "type": "uint256"
            },
            {
              "internalType": "uint256",
              "name": "repayment",
              "type": "uint256"
            },
            {
              "internalType": "uint64",
              "name": "startTime",
              "type": "uint64"
            },
            {
              "internalType": "uint64",
              "name": "duration",
              "type": "uint64"
            },
            {
              "internalType": "bytes32",
              "name": "orderHash",
              "type": "bytes32"
            }
          ],
          "internalType": "struct IPurchaseEscrow.PurchaseEscrowTerms",
          "name": "",
          "type": "tuple"
        }
      ],
      "stateMutability": "view",
      "type": "function"
    },
    {
      "inputs": [],
      "name": "renounceOwnership",
      "outputs": [],
      "stateMutability": "nonpayable",
      "type": "function"
    },
    {
      "inputs": [
        {
          "internalType": "uint256",
          "name": "escrowId",
          "type": "uint256"
        }
      ],
      "name": "repay",
      "outputs": [],
      "stateMutability": "nonpayable",
      "type": "function"
    },
    {
      "inputs": [
        {
          "internalType": "uint256",
          "name": "escrowId",
          "type": "uint256"
        }
      ],
      "name": "repayETH",
      "outputs": [],
      "stateMutability": "payable",
      "type": "function"
    },
    {
      "inputs": [],
      "name": "seaport",
      "outputs": [
        {
          "internalType": "address",
          "name": "",
          "type": "address"
        }
      ],
      "stateMutability": "view",
      "type": "function"
    },
    {
      "inputs": [
        {
          "internalType": "string",
          "name": "baseURI",
          "type": "string"
        }
      ],
      "name": "setLenderNoteTokenBaseURI",
      "outputs": [],
      "stateMutability": "nonpayable",
      "type": "function"
    },
    {
      "inputs": [
        {
          "internalType": "bool",
          "name": "paused",
          "type": "bool"
        }
      ],
      "name": "setListingPaused",
      "outputs": [],
      "stateMutability": "nonpayable",
      "type": "function"
    },
    {
      "inputs": [
        {
          "internalType": "bytes",
          "name": "orderConstants",
          "type": "bytes"
        }
      ],
      "name": "setOrderConstants",
      "outputs": [],
      "stateMutability": "nonpayable",
      "type": "function"
    },
    {
      "inputs": [
        {
          "internalType": "bytes4",
          "name": "interfaceId",
          "type": "bytes4"
        }
      ],
      "name": "supportsInterface",
      "outputs": [
        {
          "internalType": "bool",
          "name": "",
          "type": "bool"
        }
      ],
      "stateMutability": "view",
      "type": "function"
    },
    {
      "inputs": [
        {
          "internalType": "uint256",
          "name": "escrowId",
          "type": "uint256"
        },
        {
          "internalType": "address",
          "name": "target",
          "type": "address"
        },
        {
          "internalType": "bytes",
          "name": "data",
          "type": "bytes"
        }
      ],
      "name": "transferAndCall",
      "outputs": [],
      "stateMutability": "payable",
      "type": "function"
    },
    {
      "inputs": [
        {
          "internalType": "address",
          "name": "newOwner",
          "type": "address"
        }
      ],
      "name": "transferOwnership",
      "outputs": [],
      "stateMutability": "nonpayable",
      "type": "function"
    },
    {
      "inputs": [
        {
          "internalType": "address",
          "name": "token",
          "type": "address"
        },
        {
          "internalType": "uint256",
          "name": "amount",
          "type": "uint256"
        }
      ],
      "name": "withdrawERC20",
      "outputs": [],
      "stateMutability": "nonpayable",
      "type": "function"
    },
    {
      "inputs": [
        {
          "internalType": "uint256",
          "name": "amount",
          "type": "uint256"
        }
      ],
      "name": "withdrawETH",
      "outputs": [],
      "stateMutability": "nonpayable",
      "type": "function"
    },
    {
      "stateMutability": "payable",
      "type": "receive"
    }
  ],
  "bytecode": "0x610120604081815234620003575780826200631980380380916200002482856200035c565b833981010312620003575781516001600160a01b0392908381168103620003575760208092015193808516808603620003575760008096600482543360018060a01b0319821617845588519485938492883391167f8be0079c531659141344cd1fd0a4f28419497f9722a3daafe3b4186f6b6457e08886a3600180556080526303d1eddd60e61b82525afa9081156200034d578690879262000260575b5060c0521660a05260e052815190611e7880830191906001600160401b038311848410176200024c57916080849260c094620044a18539868352601e878401527f507572636861736520457363726f77204c656e646572204e6f74652056310000606084015282015260046080820152632822a62760e11b60a082015203019083f09182156200024157506101009182525161410a91826200039783396080518281816112840152818161203801528181612158015281816124d101528181612e09015281816137cd01528181613a260152613f3c015260a05182613ad1015260c05182818161083401528181610e48015281816110fd015281816113ea0152818161225b01528181613a6b0152613f9c015260e0518281816105e701528181610d350152818161172a015281816119da0152611ba001525181818161064201528181610910015281816109b501528181610cd101528181610f4601528181611329015281816119a401528181611b6c015281816121fd015261270d0152f35b9051903d90823e3d90fd5b634e487b7160e01b86526041600452602486fd5b9150503d8087833e6200027481836200035c565b8101606082820312620003095781516001600160401b0391908281116200033557830181601f82011215620003355780519283116200033957875191620002c5601f8501601f19168901846200035c565b8383528784830101116200033557918691899384905b8382106200031a575082106200030d575b5050869150820151910151908282168203620003095738620000c1565b8680fd5b01015285843880620002ec565b8082018501518383018601528b9550899490910190620002db565b8880fd5b634e487b7160e01b89526041600452602489fd5b85513d88823e3d90fd5b600080fd5b601f909101601f19168101906001600160401b038211908210176200038057604052565b634e487b7160e01b600052604160045260246000fdfe6080604052600436101561001b575b361561001957600080fd5b005b60003560e01c806301ffc9a714610273578063150b7a021461026a5780631626ba7e146102615780632247463e14610258578063323229421461024f57806335b4ac3e14610246578063371fd8e61461023d578063415f1240146102345780634585e33b1461022b5780635e277bd514610222578063627dabfd146102195780636b2fa374146102105780636e04ff0d14610207578063715018a6146101fe578063754b377c146101f5578063756906f0146101ec578063758e4d9f146101e35780638da5cb5b146101da57806390102bc8146101d15780639064c5be146101c8578063a1db9782146101bf578063a2d8855b146101b6578063a793a3e4146101ad578063af773b9c146101a4578063c481ad181461019b578063f14210a614610192578063f2fde38b14610189578063f5c7bd7014610180578063f8f830c9146101775763fbb140780361000e576101726126ae565b61000e565b506101726125ba565b506101726124ba565b5061017261241f565b506101726123c9565b5061017261237f565b506101726120a7565b50610172611ff8565b50610172611e4e565b50610172611e07565b50610172611de3565b50610172611a82565b50610172611a58565b50610172611912565b506101726118e0565b5061017261188c565b506101726117e1565b506101726117aa565b50610172611713565b506101726115c8565b5061017261151a565b506101726111dd565b50610172610ece565b50610172610c44565b5061017261093f565b506101726108f9565b50610172610554565b506101726104f3565b5061017261045b565b50610172610293565b6001600160e01b031981160361028e57565b600080fd5b503461028e57602036600319011261028e5760206004356102b38161027c565b63ffffffff60e01b16630a85bd0160e11b81149081156102d9575b506040519015158152f35b6301ffc9a760e01b149050386102ce565b6001600160a01b0381160361028e57565b3590610306826102ea565b565b50634e487b7160e01b600052604160045260246000fd5b6001600160401b03811161033257604052565b61033a610308565b604052565b61012081019081106001600160401b0382111761033257604052565b60a081019081106001600160401b0382111761033257604052565b60c081019081106001600160401b0382111761033257604052565b604081019081106001600160401b0382111761033257604052565b90601f801991011681019081106001600160401b0382111761033257604052565b604051906103068261033f565b6040519061016082018281106001600160401b0382111761033257604052565b6020906001600160401b038111610417575b601f01601f19160190565b61041f610308565b61040c565b929192610430826103fa565b9161043e60405193846103ac565b82948184528183011161028e578281602093846000960137010152565b503461028e57608036600319011261028e576104786004356102ea565b6104836024356102ea565b6064356001600160401b03811161028e573660238201121561028e576104b3903690602481600401359101610424565b50604051630a85bd0160e11b8152602090f35b9181601f8401121561028e578235916001600160401b03831161028e576020838186019501011161028e57565b503461028e57604036600319011261028e576024356001600160401b03811161028e5761053261052960209236906004016104c6565b90600435612fa7565b6040516001600160e01b03199091168152f35b9081602091031261028e573590565b50602036600319011261028e5760048035610574600260015414156128bb565b600260015561058d816000526006602052604060002090565b600161059a825460ff1690565b6105a381612517565b036108dd5760018101546001600160a01b039033908216036108cc5783820191825434036108bb57805460ff191660021781556006810180549081610826575b50507f00000000000000000000000000000000000000000000000000000000000000009082821692833b1561028e5786926106a2916040518096630d0e30db60e41b82528160009b8c998a9334905af18015610819575b610806575b507f00000000000000000000000000000000000000000000000000000000000000001695604051906331a9108f60e11b8252602082806106868c8a83019190602083019252565b03818b5afa9182156107f9575b87926107c9575b505491612c8e565b80546002906106c49060081c6001600160a01b03165b6001600160a01b031690565b91015490803b156107c55760408051632142170760e11b815230858201908152336020820152918201939093528491839182908490829060600103925af180156107b8575b6107a5575b50823b156107a157604051630852cd8d60e31b8152908101848152909283918290849082906020015b03925af18015610794575b61077b575b50604051907fc8ff15919151c64dd8bcef3c6094a4b2db55ae004075a5dc51b45b17fbe9e3f98383a261077960018055565bf35b8061078861078e9261031f565b806108ee565b38610747565b61079c612a5e565b610742565b5080fd5b806107886107b29261031f565b3861070e565b6107c0612a5e565b610709565b8380fd5b6107eb91925060203d81116107f2575b6107e381836103ac565b810190612a6b565b903861069a565b503d6107d9565b610801612a5e565b610693565b806107886108139261031f565b3861063f565b610821612a5e565b61063a565b61088f61087f61086f6000947f000000000000000000000000000000000000000000000000000000000000000061190160f01b6000526002526022526042600020906000602252565b6000526008602052604060002090565b80546001600160a01b0319169055565b556108b4848060081c6000526009602052600160ff604060002092161b198154169055565b38806105e3565b60405163078d696560e31b81528590fd5b6040516348f5c3ed60e01b81528490fd5b6040516307a92f1960e51b81528390fd5b600091031261028e57565b503461028e57600036600319011261028e576040517f00000000000000000000000000000000000000000000000000000000000000006001600160a01b03168152602090f35b503461028e5760c036600319011261028e576004803561095e816102ea565b6024359161096b836102ea565b6044359160643560843560a435916001600160401b03958684169586850361028e5761099c600260015414156128bb565b60026001556001600160a01b0398868a1615610c3457897f000000000000000000000000000000000000000000000000000000000000000016998116978a8914610c2357848610610c125715610c0257610a9199610a5d6007549a610a08610a038d61291e565b600755565b610a28610a136103cd565b60018152946001600160a01b03166020860152565b6001600160a01b038a1660408501528560608501528660808501528760a0850152421660c08401906001600160401b03169052565b6001600160401b03871660e083015260009a828c61010081950152610a8c8c6000526006602052604060002090565b612952565b803b156107a157604080516340c10f1960e01b815233858201908152602081018d9052909392849290918391859183910103925af18015610bf5575b610be2575b50863b15610bde5760408051632142170760e11b815233928101928352306020840152908201839052610bba9989987f55c6e6af823ea8169180c3486f33c869aa41bdda5eb90c32b796a7fa153dc8079890979096610b9e9691959094919390929091829081906060010381838c5af18015610bd1575b610bbe575b5060405196879633889591936001600160401b039460c0969299989460e089019a60018060a01b0392838092168b521660208a01521660408801526060870152608086015260a085015216910152565b0390a2610baa60018055565b6040519081529081906020820190565b0390f35b80610788610bcb9261031f565b38610b4e565b610bd9612a5e565b610b49565b8880fd5b80610788610bef9261031f565b38610ad2565b610bfd612a5e565b610acd565b50604051637616640160e01b8152fd5b60405163166877a960e21b81528390fd5b60405163c1ab6dc160e01b81528390fd5b5060405163e6c4247b60e01b8152fd5b503461028e57602036600319011261028e5760048035610c69600260015414156128bb565b6002600155610c82816000526006602052604060002090565b916001610c90845460ff1690565b610c9981612517565b03610ebf5760018301546001600160a01b03903390821603610eaf57835460ff191660021784556006840180549081610e3a575b50507f00000000000000000000000000000000000000000000000000000000000000001692610d596040516331a9108f60e11b815260208180610d17888883019190602083019252565b0381895afa908115610e2d575b600091610e0f575b508383015490337f0000000000000000000000000000000000000000000000000000000000000000612a80565b8054600290610d739060081c6001600160a01b03166106b8565b91015490803b1561028e5760408051632142170760e11b81523085820190815233602082015291820193909352600091839182908490829060600103925af18015610e02575b610def575b50823b1561028e57604051630852cd8d60e31b81529081018281526000938491839190829084908290602001610737565b80610788610dfc9261031f565b38610dbe565b610e0a612a5e565b610db9565b610e27915060203d81116107f2576107e381836103ac565b38610d2c565b610e35612a5e565b610d24565b610e8361087f61086f6000947f000000000000000000000000000000000000000000000000000000000000000061190160f01b6000526002526022526042600020906000602252565b55610ea8838060081c6000526009602052600160ff604060002092161b198154169055565b3880610ccd565b506040516348f5c3ed60e01b8152fd5b6040516307a92f1960e51b8152fd5b503461028e57602036600319011261028e5760048035610ef3600260015414156128bb565b6002600155610f0c816000526006602052604060002090565b916001610f1a845460ff1690565b610f2381612517565b03610ebf57604080516331a9108f60e11b81528281018481526001600160a01b037f0000000000000000000000000000000000000000000000000000000000000000811696939493929160209083908190830103818a5afa9182156111a2575b600092611182575b503391160361117357610fbf610fb360058301546001600160401b038082881c169116612cc7565b6001600160401b031690565b421061116457805460ff1916600317815560068101805490816110ef575b50508054600290610ff99060081c6001600160a01b03166106b8565b91015490803b1561028e578351632142170760e11b815230848201908152336020820152604081019390935291600091839182908490829060600103925af180156110e2575b6110cf575b50833b1561028e578151630852cd8d60e31b8152908101838152600094859183919082908490829060200103925af180156110c2575b6110af575b5051907fc4dac1c7d68cd3ff1964df62f1a92dbe0c659b9ae32f5032a18c953eb7fb4b7e8383a261077960018055565b806107886110bc9261031f565b3861107f565b6110ca612a5e565b61107a565b806107886110dc9261031f565b38611044565b6110ea612a5e565b61103f565b61113861087f61086f6000947f000000000000000000000000000000000000000000000000000000000000000061190160f01b6000526002526022526042600020906000602252565b5561115d848060081c6000526009602052600160ff604060002092161b198154169055565b3880610fdd565b509051635b3d0edd60e01b8152fd5b5090516348f5c3ed60e01b8152fd5b61119b91925060203d81116107f2576107e381836103ac565b9038610f8b565b6111aa612a5e565b610f83565b602060031982011261028e57600435906001600160401b03821161028e576111d9916004016104c6565b9091565b503461028e576111f76111ef366111af565b810190610545565b611206600260015414156128bb565b600260015561121f816000526006602052604060002090565b805490600160ff831661123181612517565b0361150857600661124c846000526006602052604060002090565b0154156114f657600681018054604080516346423aa760e01b81526004810192909252936001600160a01b03939190846080836024817f000000000000000000000000000000000000000000000000000000000000000085165afa9182156114e9575b60009384936114aa575b50600285015488516331a9108f60e11b81526004810191909152916020918391829081602481015b039260081c165afa90811561149d575b60009161147f575b508516301461146e578114159081611462575b5061145157805460ff19166002179055805490816113dc575b50507f00000000000000000000000000000000000000000000000000000000000000001691823b1561028e578151630852cd8d60e31b81526004810182905260009384908290818381602481015b03925af180156113cf575b6113bc575b508151600081527f04d747c2dfcfe244e269f4a8e15b6f70016de4ad93883ebab1d6d535265ccc7290602090a26113b960018055565b51f35b806107886113c99261031f565b38611383565b6113d7612a5e565b61137e565b61142561087f61086f6000947f000000000000000000000000000000000000000000000000000000000000000061190160f01b6000526002526022526042600020906000602252565b5561144a838060081c6000526009602052600160ff604060002092161b198154169055565b3880611325565b8351634e3b5b2160e11b8152600490fd5b6001915014153861130c565b8551630f1f82e960e31b8152600490fd5b611497915060203d81116107f2576107e381836103ac565b386112f9565b6114a5612a5e565b6112f1565b6112e1945060209193506114d49060803d81116114e2575b6114cc81836103ac565b810190612d4c565b9692509050949391506112b9565b503d6114c2565b6114f1612a5e565b6112af565b60405163561a411d60e11b8152600490fd5b6040516307a92f1960e51b8152600490fd5b503461028e57611529366111af565b9060608160018060a01b03936115448560005416331461278b565b8101031261028e576115b36040928351606081018181106001600160401b038211176115bb575b8552833590611579826102ea565b81815285602086013595866020840152013595869101521660018060a01b03166bffffffffffffffffffffffff60a01b6002541617600255565b600355600455005b6115c3610308565b61156b565b50606036600319011261028e57600480356024356115e5816102ea565b6044356001600160401b03811161028e5761160390369085016104c6565b61161a849392936000526006602052604060002090565b6001611627825460ff1690565b61163081612517565b036117025760010180549093906001600160a01b039033908216036116f157831630146116e05783546001600160a01b0319166001600160a01b038416908117909455604080513381526020810195909552600095869590917f9e9a0c7d64a2ef5152f397acaad044a502f36dbdc5ac198c1da16b994a85f0fb91a26116bb60405180938193612ce3565b039134905af16116c9612c1a565b50156116d157005b604051633204506f60e01b8152fd5b60405163e6c4247b60e01b81528690fd5b6040516348f5c3ed60e01b81528790fd5b6040516307a92f1960e51b81528690fd5b503461028e57600036600319011261028e576040517f00000000000000000000000000000000000000000000000000000000000000006001600160a01b03168152602090f35b91908251928382526000905b848210611792575092806020939411611785575b601f01601f1916010190565b6000838284010152611779565b90602090818082850101519082860101520190611765565b503461028e576117c26117bc366111af565b90612eaa565b90610bba60405192839215158352604060208401526040830190611759565b503461028e576000806003193601126118445780546001600160a01b0381169061180c33831461278b565b6001600160a01b03191682556040519082907f8be0079c531659141344cd1fd0a4f28419497f9722a3daafe3b4186f6b6457e08284a3f35b80fd5b60405190602082018281106001600160401b0382111761186b575b60405260008252565b611873610308565b611862565b906020611889928181520190611759565b90565b503461028e57600036600319011261028e57610bba6040516118ad81610391565b60038152620312e360ec1b6020820152604051918291602083526020830190611759565b60243590600182101561028e57565b503461028e57604036600319011261028e576118fa6118d1565b506020611908600435612d80565b6040519015158152f35b503461028e5760a036600319011261028e5760043561192f6118d1565b5061194c611947826000526006602052604060002090565b61282e565b6001815161195981612517565b61196281612517565b036115085760408101516001600160a01b0391903390831603611a46576040516331a9108f60e11b81526004810193909352610bba92611a09926020826024817f000000000000000000000000000000000000000000000000000000000000000085165afa918215611a39575b600092611a19575b507f000000000000000000000000000000000000000000000000000000000000000016906084356064356044356136e0565b5091505060405191829182611878565b611a3291925060203d81116107f2576107e381836103ac565b90386119d7565b611a41612a5e565b6119cf565b6040516348f5c3ed60e01b8152600490fd5b503461028e57600036600319011261028e576000546040516001600160a01b039091168152602090f35b503461028e5760c036600319011261028e576004803590611aa16118d1565b5060a4356001600160401b03811161028e57611ac090369083016104c6565b91611ad0600260015414156128bb565b6002600155611aec611947856000526006602052604060002090565b9360018551611afa81612517565b611b0381612517565b03611dd357610100850151611dd35760408581018051919590916001600160a01b03903390821603611dc357611be2611c3085611b67969594611bcf8c611c15968d51906331a9108f60e11b82528c828060209e8f998a9483019190602083019252565b0381847f0000000000000000000000000000000000000000000000000000000000000000165afa918215611db6575b600092611d9e57507f000000000000000000000000000000000000000000000000000000000000000016906084356064356044356136e0565b9c9297919690985160018060a01b031690565b611bf6876000526008602052604060002090565b80546001600160a01b0319166001600160a01b03909216919091179055565b8b519384928392630b135d3f60e11b978885528d8501612d06565b0381305afa908115611d91575b600091611d64575b506001600160e01b03191603611d545792827fdc0fc35f7e6605af38f83c563616ffc1b286ee59d3883a4a0f33a7b38f51a128611ccb6106b8946060976006611c9b611cdd996000526006602052604060002090565b0155611cc0848060081c6000526009602052600160ff604060002092161b8154179055565b8a5191829182612d34565b0390a28701516001600160a01b031690565b940151843b1561028e57835163095ea7b360e01b81526001600160a01b039093169183019182526020820152600093849183919082908490829060400103925af18015611d47575b611d34575b506113b960018055565b80610788611d419261031f565b38611d2a565b611d4f612a5e565b611d25565b8651638baa579f60e01b81528590fd5b611d849150863d8811611d8a575b611d7c81836103ac565b810190612cf1565b38611c45565b503d611d72565b611d99612a5e565b611c3d565b611a32919250863d88116107f2576107e381836103ac565b611dbe612a5e565b611b96565b86516348f5c3ed60e01b81528590fd5b506040516307a92f1960e51b8152fd5b503461028e57600036600319011261028e57602060ff600554166040519015158152f35b503461028e57604036600319011261028e57610019600435611e28816102ea565b6000546001600160a01b039190611e42908316331461278b565b60243591339116612c8e565b503461028e57606036600319011261028e57600435611e6b6118d1565b506044356001600160401b03811161028e57611e8e611ea89136906004016104c6565b90611e9e600260015414156128bb565b6002600155613f21565b91611ed1611ec482969593966000526008602052604060002090565b546001600160a01b031690565b6001600160a01b0392903390841603611a46576006611efa866000526006602052604060002090565b0154036114f65761087f611f18916000526008602052604060002090565b60009383856006611f3482976000526006602052604060002090565b0155611f5a818060081c6000526009602052600160ff604060002092161b198154169055565b604051600081527f76cecaec91b887f9e01c822a823a550f49daf646041ba1fb66b9497c0b6d0ea790602090a21690813b15611ff45760405163095ea7b360e01b815260006004820152602481019190915291908290604490829084905af18015611fe7575b611fd4575b50611fcf60018055565b604051f35b80610788611fe19261031f565b38611fc5565b611fef612a5e565b611fc0565b5050fd5b503461028e576000806003193601126118445780602060018060a01b0361202381845416331461278b565b600460405180948193632d9a5cb360e11b83527f0000000000000000000000000000000000000000000000000000000000000000165af1801561209a575b61206c575b50604051f35b61208c9060203d8111612093575b61208481836103ac565b81019061347a565b5038612066565b503d61207a565b6120a2612a5e565b612061565b503461028e5760408060031936011261028e5760049081356120c76118d1565b506120d7600260015414156128bb565b60026001556120f0816000526006602052604060002090565b805490600160ff831661210281612517565b0361236557600661211d846000526006602052604060002090565b0154156123555760068101805485516346423aa760e01b81528781019182526001600160a01b039492939290916080908390819003602001817f000000000000000000000000000000000000000000000000000000000000000089165afa908115612348575b6000928392612319575b50600284015488516331a9108f60e11b8152808b019182529160209183919082908a90829086015b039260081c165afa90811561230c575b6000916122ee575b50851630146122de5781141590816122d2575b506122c257805460ff191660021790558054908161224d575b50507f00000000000000000000000000000000000000000000000000000000000000001692833b1561028e578251630852cd8d60e31b81529081018281526000948591839190829084908290602001611373565b61229661087f61086f6000947f000000000000000000000000000000000000000000000000000000000000000061190160f01b6000526002526022526042600020906000602252565b556122bb828060081c6000526009602052600160ff604060002092161b198154169055565b38806121f9565b8451634e3b5b2160e11b81528690fd5b600191501415386121e0565b8651630f1f82e960e31b81528890fd5b612306915060203d81116107f2576107e381836103ac565b386121cd565b612314612a5e565b6121c5565b602093506121b591925061233a9060803d81116114e2576114cc81836103ac565b95925090509392915061218d565b612350612a5e565b612183565b5050505163561a411d60e11b8152fd5b505050516307a92f1960e51b8152fd5b8015150361028e57565b503461028e57602036600319011261028e5760043561239d81612375565b6123b260018060a01b0360005416331461278b565b60ff80196005541691151516176005556000604051f35b503461028e57602036600319011261028e57600435600080808080946123f960018060a01b03835416331461278b565b818115612416575b3390f11561240e57604051f35b611fcf612a5e565b506108fc612401565b503461028e57602036600319011261028e5760043561243d816102ea565b6000546001600160a01b0390612456908216331461278b565b81161561246657610019906127d6565b60405162461bcd60e51b815260206004820152602660248201527f4f776e61626c653a206e6577206f776e657220697320746865207a65726f206160448201526564647265737360d01b6064820152608490fd5b503461028e57600036600319011261028e576040517f00000000000000000000000000000000000000000000000000000000000000006001600160a01b03168152602090f35b50634e487b7160e01b600052602160045260246000fd5b6004111561252157565b610306612500565b8151610120820193929061253c81612517565b82526020818101516001600160a01b039081169184019190915260408083015190911690830152606081015160608301526080810151608083015260a081015160a083015261259b60c082015160c08401906001600160401b03169052565b60e0818101516001600160401b03169083015261010080910151910152565b503461028e57602036600319011261028e57610bba60408051906125dd8261033f565b80600080845280602085015280828501528060608501528060808501528060a08501528060c08501528060e08501528061010080950152600435815260066020522091600661262a6103cd565b93612650815461263d60ff821688612822565b60081c6001600160a01b03166020870152565b60018101546001600160a01b0316848601526002810154606086015260038101546080860152600481015460a086015260058101546001600160401b0380821660c088015290851c1660e08601520154908301525191829182612529565b503461028e576000602036600319011261184457806004356001600160401b0381116127885736602382011215612788576126f3903690602481600401359101610424565b81546001600160a01b039061270b908216331461278b565b7f00000000000000000000000000000000000000000000000000000000000000001690813b15611ff4578291612757916040519485809481936355f804b360e01b835260048301611878565b03925af1801561277b575b61276c5750604051f35b6127759061031f565b38612066565b612783612a5e565b612762565b50fd5b1561279257565b606460405162461bcd60e51b815260206004820152602060248201527f4f776e61626c653a2063616c6c6572206973206e6f7420746865206f776e65726044820152fd5b600080546001600160a01b039283166001600160a01b03198216811783556040519093909116917f8be0079c531659141344cd1fd0a4f28419497f9722a3daafe3b4186f6b6457e091a3565b61282b82612517565b52565b9060066128396103cd565b9261285f815461284c60ff821687612822565b60081c6001600160a01b03166020860152565b60018101546001600160a01b031660408501526002810154606085015260038101546080850152600481015460a085015260058101546001600160401b0380821660c087015260409190911c1660e08501520154610100830152565b156128c257565b60405162461bcd60e51b815260206004820152601f60248201527f5265656e7472616e637947756172643a207265656e7472616e742063616c6c006044820152606490fd5b50634e487b7160e01b600052601160045260246000fd5b600190600019811461292e570190565b612936612907565b0190565b9061294481612517565b60ff80198354169116179055565b9061010060069161296d815161296781612517565b8561293a565b60208101516129a1906001600160a01b03168554610100600160a81b03191660089190911b610100600160a81b0316178555565b60408101516001850180546001600160a01b0319166001600160a01b03909216919091179055606081015160028501556080810151600385015560a08101516004850155612a5760058501612a20612a0360c08501516001600160401b031690565b825467ffffffffffffffff19166001600160401b03909116178255565b60e083015181546fffffffffffffffff0000000000000000191660409190911b6fffffffffffffffff000000000000000016179055565b0151910155565b506040513d6000823e3d90fd5b9081602091031261028e5751611889816102ea565b6040516323b872dd60e01b60208201526001600160a01b039283166024820152929091166044830152606482019290925261030691612acc82608481015b03601f1981018452836103ac565b612b45565b9081602091031261028e575161188981612375565b15612aed57565b60405162461bcd60e51b815260206004820152602a60248201527f5361666545524332303a204552433230206f7065726174696f6e20646964206e6044820152691bdd081cdd58d8d9595960b21b6064820152608490fd5b6040516001600160a01b039190911691612b5e82610391565b6020928383527f5361666545524332303a206c6f772d6c6576656c2063616c6c206661696c656484840152803b15612bd55760008281928287612bb09796519301915af1612baa612c1a565b90612c4a565b80519081612bbd57505050565b8261030693612bd0938301019101612ad1565b612ae6565b60405162461bcd60e51b815260048101859052601d60248201527f416464726573733a2063616c6c20746f206e6f6e2d636f6e74726163740000006044820152606490fd5b3d15612c45573d90612c2b826103fa565b91612c3960405193846103ac565b82523d6000602084013e565b606090565b90919015612c56575090565b815115612c665750805190602001fd5b60405162461bcd60e51b815260206004820152908190612c8a906024830190611759565b0390fd5b60405163a9059cbb60e01b60208201526001600160a01b039092166024830152604482019290925261030691612acc8260648101612abe565b906001600160401b03808093169116809203811161292e570190565b908092918237016000815290565b9081602091031261028e57516118898161027c565b91926060938192845260406020850152816040850152848401376000828201840152601f01601f1916010190565b90604061188992600081528160208201520190611759565b919082608091031261028e578151612d6381612375565b916020810151612d7281612375565b916060604083015192015190565b612d94816000526006602052604060002090565b906001612db5612dae836000526006602052604060002090565b5460ff1690565b612dbe81612517565b03612e8d57612dd96006916000526006602052604060002090565b015415612e8757600601546040516346423aa760e01b815260048101919091526080816024816001600160a01b037f0000000000000000000000000000000000000000000000000000000000000000165afa908115612e7a575b6000908192612e53575b506001149081612e4b575090565b600191501490565b60019250612e6f915060803d81116114e2576114cc81836103ac565b939250905090612e3d565b612e82612a5e565b612e33565b50600090565b5050600090565b919082604091031261028e576020823592013590565b9060008115612f87575081612ec491612ed4930190612e94565b9190915b60075460081c90612f95565b905b81811115612eeb575050600090611889611847565b60005b6101008110612f065750612f019061291e565b612ed6565b9291612f1c826000526009602052604060002090565b549160019283861b1615612f7a57848160081b1794612f41612f3d87612d80565b1590565b612f6657505060408051602080820196909652948552612f629150846103ac565b9190565b909250612f759193945061291e565b612eee565b91509192612f759061291e565b915050612ed4600019612ec8565b9080821015612fa2575090565b905090565b90612fba612fc091612fc8943691610424565b8261318b565b92909261300a565b6000908152600860205260409020546001600160a01b03918216911603612ff457630b135d3f60e11b90565b6001600160e01b031990565b6005111561252157565b61301381613000565b8061301b5750565b61302481613000565b600181036130715760405162461bcd60e51b815260206004820152601860248201527f45434453413a20696e76616c6964207369676e617475726500000000000000006044820152606490fd5b61307a81613000565b600281036130c75760405162461bcd60e51b815260206004820152601f60248201527f45434453413a20696e76616c6964207369676e6174757265206c656e677468006044820152606490fd5b6130d081613000565b600381036131285760405162461bcd60e51b815260206004820152602260248201527f45434453413a20696e76616c6964207369676e6174757265202773272076616c604482015261756560f01b6064820152608490fd5b80613134600492613000565b1461313b57565b60405162461bcd60e51b815260206004820152602260248201527f45434453413a20696e76616c6964207369676e6174757265202776272076616c604482015261756560f01b6064820152608490fd5b8151604181036131b45750906111d9916020820151906060604084015193015160001a9061320e565b6040036131f85781604060206111d99401519101519160ff601b84821c94811986116131eb575b600180841b03169401169061320e565b6131f3612907565b6131db565b5050600090600290565b8119811161292e570190565b9291907f7fffffffffffffffffffffffffffffff5d576e7357a4501ddfe92f46681b20a083116132b85760ff16601b811415806132ad575b6132a1579160809493916020936040519384528484015260408301526060820152600093849182805260015afa15613294575b81516001600160a01b0381161561328e579190565b50600190565b61329c612a5e565b613279565b50505050600090600490565b50601c811415613246565b50505050600090600390565b6040519061016082018281106001600160401b0382111761332a575b60405281610140600091828152826020820152606060408201526060808201528260808201528260a08201528260c08201528260e082015282610100820152826101208201520152565b613332610308565b6132e0565b6020906001600160401b038111613350575b60051b0190565b613358610308565b613349565b60409081519161336c83610391565b60018352829160005b6020808210156133d45783516020929160a082016001600160401b038111838210176133c7575b8652600082526000818301526000868301526000606083015260006080830152828801015201613375565b6133cf610308565b61339c565b505091925050565b6040805191906001600160401b039060808085018381118682101761346d575b825260038552849360005b6060808210156134635784516020929160c0820188811183821017613456575b8752600082526000849181838501528189850152830152600086830152600060a0830152828a01015201613407565b61345e610308565b613427565b5050939450505050565b613475610308565b6133fc565b9081602091031261028e575190565b50634e487b7160e01b600052603260045260246000fd5b6020908051156134ae570190565b612936613489565b6040908051600110156134ae570190565b6060908051600210156134ae570190565b60fa9080600019048211811515166134ee570290565b6134f6612907565b0290565b9060068210156135075752565b61282b612500565b90815180825260208080930193019160005b82811061352f575050505090565b909192938260a060019287516135468282516134fa565b8084015185841b869003168285015260408082015190830152606080820151908301526080908101519082015201950193929101613521565b90815180825260208080930193019160005b82811061359f575050505090565b909192938260c060019287516135b68282516134fa565b848060a01b038085830151168584015260408083015190840152606080830151908401526080808301519084015260a0809201511690820152019501910192919092613591565b9061282b82612517565b80516001600160a01b03168252906020828101516001600160a01b031690820152613656613644604084015161016080604086015284019061350f565b6060840151838203606085015261357f565b91613669608082015160808401906135fd565b60a081015160a083015260c081015160c083015260e081015160e0830152610100808201519083015261012080820151908301526101408091015191015290565b906020611889928181520190613607565b919082604091031261028e57602082516136d4816102ea565b92015161188981612375565b949390919360016136f360055460ff1690565b151514613c0857613728610fb361371460c08401516001600160401b031690565b60e08401516001600160401b031690612cc7565b6001600160401b038416118015613bff575b613bed576137466132c4565b95869561375161335d565b604088015261375e6133dc565b60608801523087526002546001600160a01b03166001600160a01b03811660208901529460006080890181905260a089015260c088015260035460e08801526101008701526004805461012088015260405163f07ec37360e01b815230918101919091529282908085602481017f00000000000000000000000000000000000000000000000000000000000000006001600160a01b031691889103815a93602094fa96898815613989606061394f613947613a039f6139f49f6106b89f60409f6139c29d6138ff6139a39d60206138938b6139429960809f9860a09861393b9a613be0575b600091613bc3575b50610140820152604061386361386a918301516134a0565b5160029052565b868401516138a490613884906001600160a01b03166106b8565b604061389387918501516134a0565b516001600160a01b03909216910152565b8187015160406138b6818401516134a0565b5101526040826138ca6001928401516134a0565b510152604060806138df6001928401516134a0565b5101526138f86138f1838301516134a0565b5160019052565b01516134a0565b0191825187613910818d01516134a0565b510152825189613922898d01516134a0565b51015260018060a01b031660a0613893888c01516134a0565b518c613202565b6134d8565b612710900490565b9361395f6138f1838301516134b6565b613971886020613893858501516134b6565b848261397f818401516134b6565b51015201516134b6565b51015260018060a01b031660a061389360608d01516134b6565b6139b36138f160608b01516134c7565b602061389360608b01516134c7565b8060606139d1818a01516134c7565b51015260806139e360608901516134c7565b51015201516001600160a01b031690565b60a061389360608501516134c7565b6040516379df72bd60e01b81529160208380613a2285600483016136aa565b03817f00000000000000000000000000000000000000000000000000000000000000006001600160a01b03165afa928315613bb6575b600093613b91575b50613acd90613aa6847f000000000000000000000000000000000000000000000000000000000000000061190160f01b6000526002526022526042600020906000602252565b936040610120850151815180958192636e9bfd9f60e01b8352600483019190602083019252565b03817f00000000000000000000000000000000000000000000000000000000000000006001600160a01b03165afa8015613b84575b600093600091613b4f575b5015613b3d57613b37613b2994604051958691602083016136aa565b03601f1981018652856103ac565b93929190565b604051637a6e358960e01b8152600490fd5b9050613b7491935060403d604011613b7d575b613b6c81836103ac565b8101906136bb565b92909238613b0d565b503d613b62565b613b8c612a5e565b613b02565b613acd919350613baf9060203d6020116120935761208481836103ac565b9290613a60565b613bbe612a5e565b613a58565b613bda9150853d87116120935761208481836103ac565b3861384b565b613be8612a5e565b613843565b6040516312a900d160e01b8152600490fd5b5042831061373a565b604051637892dcf360e01b8152600490fd5b3590600682101561028e57565b81601f8201121561028e57803590613c3e82613337565b92604090613c4e825195866103ac565b838552602091828601918360a08097028601019481861161028e578401925b858410613c7e575050505050505090565b868483031261028e578487918451613c958161035b565b613c9e87613c1a565b815282870135613cad816102ea565b8382015285870135868201526060808801359082015260808088013590820152815201930192613c6d565b81601f8201121561028e57803590613cef82613337565b92604090613cff825195866103ac565b838552602091828601918360c08097028601019481861161028e578401925b858410613d2f575050505050505090565b868483031261028e578487918451613d4681610376565b613d4f87613c1a565b815282870135613d5e816102ea565b838201528587013586820152606080880135908201526080808801359082015260a08088013590613d8e826102ea565b820152815201930192613d1e565b3590600482101561028e57565b60208183031261028e5780356001600160401b039182821161028e5701906101608284031261028e57613dda6103da565b92613de4836102fb565b8452613df2602084016102fb565b6020850152604083013582811161028e5781613e0f918501613c27565b6040850152606083013591821161028e57613e2b918301613cd8565b6060830152613e3c60808201613d9c565b608083015260a081013560a083015260c081013560c083015260e081013560e083015261010080820135908301526101208082013590830152610140809101359082015290565b60405190613e9082610391565b600182528160005b60209081811015613eba57602091613eae6132c4565b90828501015201613e98565b505050565b602080820190808352835180925260408301928160408460051b8301019501936000915b848310613ef35750505050505090565b9091929394958480613f11600193603f198682030187528a51613607565b9801930193019194939290613ee3565b613f2d91810190613da9565b6040516379df72bd60e01b81527f00000000000000000000000000000000000000000000000000000000000000006001600160a01b031692602092838380613f7884600483016136aa565b0381885afa9283156140c7575b6000936140a8575b506001600085614011613fd7877f000000000000000000000000000000000000000000000000000000000000000061190160f01b6000526002526022526042600020906000602252565b98613fe0613e83565b86613fea826134a0565b52613ff4816134a0565b50604051948580948193630fd9f1e160e41b835260048301613ebf565b03925af190811561409b575b60009161406e575b5015150361405c576140526106b86140416040809401516134a0565b51958601516001600160a01b031690565b9301519193929190565b60405163d1b5721160e01b8152600490fd5b61408e9150863d8811614094575b61408681836103ac565b810190612ad1565b38614025565b503d61407c565b6140a3612a5e565b61401d565b6140c0919350843d86116120935761208481836103ac565b9138613f8d565b6140cf612a5e565b613f8556fea26469706673582212202630571efb8e1e7a2042640848767ba02113ebebc81ab7f37db9f0750721850664736f6c634300080f0033608060405234620003635762001e78803803806200001d8162000368565b9283398101604082820312620003635781516001600160401b0392908381116200036357826200004f9183016200038e565b906020928382015185811162000363576200006b92016200038e565b9281518181116200034d576000938454916001948584811c9416801562000342575b838510146200032e578190601f94858111620002db575b508390858311600114620002775788926200026b575b5050600019600383901b1c191690851b1785555b8551928311620002575783548481811c911680156200024c575b828210146200023857828111620001f0575b50809183116001146200018a57508394829394926200017e575b5050600019600383901b1c191690821b1790555b60068054336001600160a01b031982168117909255604051926001600160a01b03909116907f8be0079c531659141344cd1fd0a4f28419497f9722a3daafe3b4186f6b6457e09084a3611a669081620004128239f35b01519050388062000114565b90601f198316958486528286209286905b888210620001d85750508385969710620001be575b505050811b01905562000128565b015160001960f88460031b161c19169055388080620001b0565b8087859682949686015181550195019301906200019b565b8486528186208380860160051c8201928487106200022e575b0160051c019085905b82811062000222575050620000fa565b87815501859062000212565b9250819262000209565b634e487b7160e01b86526022600452602486fd5b90607f1690620000e8565b634e487b7160e01b85526041600452602485fd5b015190503880620000ba565b8880528489208894509190601f1984168a5b87828210620002c45750508411620002aa575b505050811b018555620000ce565b015160001960f88460031b161c191690553880806200029c565b8385015186558b9790950194938401930162000289565b9091508780528388208580850160051c82019286861062000324575b918991869594930160051c01915b82811062000315575050620000a4565b8a815585945089910162000305565b92508192620002f7565b634e487b7160e01b87526022600452602487fd5b93607f16936200008d565b634e487b7160e01b600052604160045260246000fd5b600080fd5b6040519190601f01601f191682016001600160401b038111838210176200034d57604052565b81601f8201121562000363578051906001600160401b0382116200034d57602090620003c3601f8401601f1916830162000368565b93838552828483010111620003635782906000905b83838310620003f857505011620003ee57505090565b6000918301015290565b81935082819392010151828288010152018391620003d856fe60806040526004361015610013575b600080fd5b60003560e01c806301ffc9a7146101a357806306fdde031461019a578063081812fc14610191578063095ea7b31461018857806323b872dd1461017f57806340c10f191461017657806342842e0e1461016d57806342966c68146101645780634f558e791461015b57806355f804b3146101525780636352211e1461014957806370a0823114610140578063715018a6146101375780638da5cb5b1461012e57806395d89b4114610125578063a22cb4651461011c578063b88d4fde14610113578063c87b56dd1461010a578063e985e9c5146101015763f2fde38b146100f957600080fd5b61000e610e2c565b5061000e610dce565b5061000e610ce4565b5061000e610c83565b5061000e610b96565b5061000e610af0565b5061000e610ac6565b5061000e610a61565b5061000e6109be565b5061000e61099f565b5061000e610859565b5061000e610759565b5061000e6106a9565b5061000e610680565b5061000e61052b565b5061000e610501565b5061000e6103dc565b5061000e61037f565b5061000e61029b565b5061000e6101be565b6001600160e01b031981160361000e57565b503461000e57602036600319011261000e5760206004356101de816101ac565b63ffffffff60e01b166380ac58cd60e01b811490811561021c575b811561020b575b506040519015158152f35b6301ffc9a760e01b14905038610200565b635b5e139f60e01b811491506101f9565b918091926000905b82821061024d575011610246575050565b6000910152565b91508060209183015181860152018291610235565b9060209161027b8151809281855285808601910161022d565b601f01601f1916010190565b906020610298928181520190610262565b90565b503461000e5760008060031936011261037c57604051908080546102be81610fd6565b8085529160019180831690811561035257506001146102f8575b6102f4856102e8818703826107d5565b60405191829182610287565b0390f35b80809450527f290decd9548b62a8d60345a988386fc84ba6bc95484008f6362f93160ef3e5635b82841061033a5750505081016020016102e8826102f46102d8565b8054602085870181019190915290930192810161031f565b8695506102f4969350602092506102e894915060ff191682840152151560051b82010192936102d8565b80fd5b503461000e57602036600319011261000e57602061039e600435611189565b6040516001600160a01b039091168152f35b600435906001600160a01b038216820361000e57565b602435906001600160a01b038216820361000e57565b503461000e57604036600319011261000e576103f66103b0565b60243561040281610f5e565b916001600160a01b03808416908216811461047d576104349361042f913314908115610436575b50611117565b61163f565b005b6001600160a01b0316600090815260056020526040902061047791506104709033905b9060018060a01b0316600052602052604060002090565b5460ff1690565b38610429565b60405162461bcd60e51b815260206004820152602160248201527f4552433732313a20617070726f76616c20746f2063757272656e74206f776e656044820152603960f91b6064820152608490fd5b606090600319011261000e576001600160a01b0390600435828116810361000e5791602435908116810361000e579060443590565b503461000e57610434610513366104cc565b91610526610521843361131f565b61121b565b6114d0565b503461000e57604036600319011261000e576105456103b0565b60243560018060a01b0361055e81600654163314610ec3565b6040519061056b826107ac565b60008252831691821561063c576104349381610637946105af6105aa6105a684600052600260205260018060a01b0360406000205416151590565b1590565b6119e4565b6001600160a01b03831660009081526003602052604090206105d1815461149b565b905561060a836105eb846000526002602052604060002090565b80546001600160a01b0319166001600160a01b03909216919091179055565b60007fddf252ad1be2c89b69c2b068fc378daa952ba7f163c4a11628f55a4df523b3ef81604051a4611746565b6112fb565b606460405162461bcd60e51b815260206004820152602060248201527f4552433732313a206d696e7420746f20746865207a65726f20616464726573736044820152fd5b503461000e57610434610692366104cc565b90604051926106a0846107ac565b60008452611281565b503461000e57602036600319011261000e5760043560018060a01b036106d481600654163314610ec3565b6106dd82610f5e565b6106e6836115e9565b1660009181835260036020526040832080546001811061074c575b6000190190558083526002602052604080842080546001600160a01b0319169055519183907fddf252ad1be2c89b69c2b068fc378daa952ba7f163c4a11628f55a4df523b3ef8285a4f35b610754611467565b610701565b503461000e57602036600319011261000e576004356000908152600260209081526040909120546001600160a01b031615156040519015158152f35b50634e487b7160e01b600052604160045260246000fd5b6020810190811067ffffffffffffffff8211176107c857604052565b6107d0610795565b604052565b90601f8019910116810190811067ffffffffffffffff8211176107c857604052565b60209067ffffffffffffffff8111610815575b601f01601f19160190565b61081d610795565b61080a565b92919261082e826107f7565b9161083c60405193846107d5565b82948184528183011161000e578281602093846000960137010152565b503461000e5760208060031936011261000e5767ffffffffffffffff60043581811161000e573660238201121561000e5761089e903690602481600401359101610822565b916108b460018060a01b03600654163314610ec3565b8251918211610992575b6108d2826108cd600754610fd6565b611973565b80601f831160011461090b57508192600092610900575b50508160011b916000199060031b1c191617600755005b0151905038806108e9565b90601f1983169361093e60076000527fa66cc928b5edb82af9bd49922954155ab7b0942694bea4ce44661d9a8736c68890565b926000905b86821061097a5750508360019510610961575b505050811b01600755005b015160001960f88460031b161c19169055388080610956565b80600185968294968601518155019501930190610943565b61099a610795565b6108be565b503461000e57602036600319011261000e57602061039e600435610f5e565b503461000e57602036600319011261000e576001600160a01b036109e06103b0565b168015610a095760005260036020526102f4604060002054604051918291829190602083019252565b60405162461bcd60e51b815260206004820152602a60248201527f4552433732313a2062616c616e636520717565727920666f7220746865207a65604482015269726f206164647265737360b01b6064820152608490fd5b503461000e5760008060031936011261037c576006546001600160a01b03811690610a8d338314610ec3565b6001600160a01b0319166006556040519082907f8be0079c531659141344cd1fd0a4f28419497f9722a3daafe3b4186f6b6457e08284a3f35b503461000e57600036600319011261000e576006546040516001600160a01b039091168152602090f35b503461000e5760008060031936011261037c5760405190806001805491610b1683610fd6565b808652928281169081156103525750600114610b3c576102f4856102e8818703826107d5565b92508083527fb10e2d527612073b26eecdfd717e6a320cf44b4afac2b0732d9fcbe2b7fa0cf65b828410610b7e5750505081016020016102e8826102f46102d8565b80546020858701810191909152909301928101610b63565b503461000e57604036600319011261000e57610bb06103b0565b602435801515810361000e576001600160a01b03821691338314610c3e5781610bfb610c0c9233600052600560205260406000209060018060a01b0316600052602052604060002090565b9060ff801983541691151516179055565b604051901515815233907f17307eab39ab6107e8899845ad3d59bd9653f200f220920489ca2b5937696c3190602090a3005b60405162461bcd60e51b815260206004820152601960248201527f4552433732313a20617070726f766520746f2063616c6c6572000000000000006044820152606490fd5b503461000e57608036600319011261000e57610c9d6103b0565b610ca56103c6565b6064359167ffffffffffffffff831161000e573660238401121561000e57610cda610434933690602481600401359101610822565b9160443591611281565b503461000e57602036600319011261000e576004356000818152600260205260409020546001600160a01b031615610d7157610d1e611010565b805115610d5f576102e8610d4b91610d51610d3b6102f49561189c565b6040519485936020850190611100565b90611100565b03601f1981018352826107d5565b50506102f4610d6c6110ce565b6102e8565b60405162461bcd60e51b815260206004820152602f60248201527f4552433732314d657461646174613a2055524920717565727920666f72206e6f60448201526e3732bc34b9ba32b73a103a37b5b2b760891b6064820152608490fd5b503461000e57604036600319011261000e57602060ff610e20610def6103b0565b610df76103c6565b6001600160a01b0391821660009081526005865260408082209290931681526020919091522090565b54166040519015158152f35b503461000e57602036600319011261000e57610e466103b0565b6006546001600160a01b0390610e5f9082163314610ec3565b811615610e6f5761043490610f0e565b60405162461bcd60e51b815260206004820152602660248201527f4f776e61626c653a206e6577206f776e657220697320746865207a65726f206160448201526564647265737360d01b6064820152608490fd5b15610eca57565b606460405162461bcd60e51b815260206004820152602060248201527f4f776e61626c653a2063616c6c6572206973206e6f7420746865206f776e65726044820152fd5b6006549060018060a01b0380911691826bffffffffffffffffffffffff60a01b821617600655167f8be0079c531659141344cd1fd0a4f28419497f9722a3daafe3b4186f6b6457e06000604051a3565b6000908152600260205260409020546001600160a01b03168015610f7f5790565b60405162461bcd60e51b815260206004820152602960248201527f4552433732313a206f776e657220717565727920666f72206e6f6e657869737460448201526832b73a103a37b5b2b760b91b6064820152608490fd5b90600182811c92168015611006575b6020831014610ff057565b634e487b7160e01b600052602260045260246000fd5b91607f1691610fe5565b604051906000826007549161102483610fd6565b808352926001908181169081156110ac575060011461104d575b5061104b925003836107d5565b565b6007600090815291507fa66cc928b5edb82af9bd49922954155ab7b0942694bea4ce44661d9a8736c6885b848310611091575061104b93505081016020013861103e565b81935090816020925483858a01015201910190918592611078565b90506020925061104b94915060ff191682840152151560051b8201013861103e565b604051906020820182811067ffffffffffffffff8211176110f3575b60405260008252565b6110fb610795565b6110ea565b906111136020928281519485920161022d565b0190565b1561111e57565b60405162461bcd60e51b815260206004820152603860248201527f4552433732313a20617070726f76652063616c6c6572206973206e6f74206f7760448201527f6e6572206e6f7220617070726f76656420666f7220616c6c00000000000000006064820152608490fd5b6000818152600260205260409020546001600160a01b0316156111c1576000908152600460205260409020546001600160a01b031690565b60405162461bcd60e51b815260206004820152602c60248201527f4552433732313a20617070726f76656420717565727920666f72206e6f6e657860448201526b34b9ba32b73a103a37b5b2b760a11b6064820152608490fd5b1561122257565b60405162461bcd60e51b815260206004820152603160248201527f4552433732313a207472616e736665722063616c6c6572206973206e6f74206f6044820152701ddb995c881b9bdc88185c1c1c9bdd9959607a1b6064820152608490fd5b9161104b939161063793611298610521843361131f565b6112a38383836114d0565b611807565b60809060208152603260208201527f4552433732313a207472616e7366657220746f206e6f6e20455243373231526560408201527131b2b4bb32b91034b6b83632b6b2b73a32b960711b60608201520190565b1561130257565b60405162461bcd60e51b81528061131b600482016112a8565b0390fd5b6000828152600260205260409020546001600160a01b0316156113b55761134582610f5e565b9160018060a01b0390818316928285168414948515611384575b5050831561136e575b50505090565b61137a91929350611189565b1614388080611368565b6001600160a01b0316600090815260056020526040902091945060ff916113ab9190610459565b541692388061135f565b60405162461bcd60e51b815260206004820152602c60248201527f4552433732313a206f70657261746f7220717565727920666f72206e6f6e657860448201526b34b9ba32b73a103a37b5b2b760a11b6064820152608490fd5b1561141657565b60405162461bcd60e51b8152602060048201526024808201527f4552433732313a207472616e7366657220746f20746865207a65726f206164646044820152637265737360e01b6064820152608490fd5b50634e487b7160e01b600052601160045260246000fd5b6001811061148e575b6000190190565b611496611467565b611487565b60019060011981116114ab570190565b611113611467565b80196030116114c3575b60300190565b6114cb611467565b6114bd565b906114da83610f5e565b6001600160a01b0383811692909182168390036115965761152961156d9282169461150686151561140f565b61150f876115e9565b6001600160a01b0316600090815260036020526040902090565b611533815461147e565b90556001600160a01b0381166000908152600360205260409020611557815461149b565b90556105eb856000526002602052604060002090565b7fddf252ad1be2c89b69c2b068fc378daa952ba7f163c4a11628f55a4df523b3ef6000604051a4565b60405162461bcd60e51b815260206004820152602560248201527f4552433732313a207472616e736665722066726f6d20696e636f72726563742060448201526437bbb732b960d91b6064820152608490fd5b600081815260046020526040812080546001600160a01b03191690556001600160a01b0361161683610f5e565b167f8c5be1e5ebec7d5bd14f71427d1e84f3dd0314c0f7b2291e5b200ac8c7c3b92582604051a4565b600082815260046020526040902080546001600160a01b0319166001600160a01b0383161790556001600160a01b038061167884610f5e565b169116907f8c5be1e5ebec7d5bd14f71427d1e84f3dd0314c0f7b2291e5b200ac8c7c3b9256000604051a4565b9081602091031261000e5751610298816101ac565b610298939260809260018060a01b031682526000602083015260408201528160608201520190610262565b6001600160a01b03918216815291166020820152604081019190915260806060820181905261029892910190610262565b3d15611741573d90611727826107f7565b9161173560405193846107d5565b82523d6000602084013e565b606090565b909190803b156117ff57611778602091600093604051948580948193630a85bd0160e11b998a845233600485016116ba565b03926001600160a01b03165af1600091816117cf575b506117c15761179b611716565b805190816117bc5760405162461bcd60e51b81528061131b600482016112a8565b602001fd5b6001600160e01b0319161490565b6117f191925060203d81116117f8575b6117e981836107d5565b8101906116a5565b903861178e565b503d6117df565b505050600190565b92909190823b1561183a57611778926020926000604051809681958294630a85bd0160e11b9a8b855233600486016116e5565b50505050600190565b9061184d826107f7565b61185a60405191826107d5565b828152809261186b601f19916107f7565b0190602036910137565b908151811015611886570160200190565b634e487b7160e01b600052603260045260246000fd5b8015611936576000818181805b61190c57506118b781611843565b935b6118c35750505090565b6118cc9061147e565b90600a906118f76118e76118e18484066114b3565b60ff1690565b60f81b6001600160f81b03191690565b841a6119038487611875565b530490816118b9565b91506001600a916000198114611929575b019104808492916118a9565b611931611467565b61191d565b506040516040810181811067ffffffffffffffff821117611966575b60405260018152600360fc1b602082015290565b61196e610795565b611952565b601f811161197f575050565b600090600782527fa66cc928b5edb82af9bd49922954155ab7b0942694bea4ce44661d9a8736c688906020601f850160051c830194106119da575b601f0160051c01915b8281106119cf57505050565b8181556001016119c3565b90925082906119ba565b156119eb57565b60405162461bcd60e51b815260206004820152601c60248201527f4552433732313a20746f6b656e20616c7265616479206d696e746564000000006044820152606490fdfea26469706673582212200dff59e261adb1f066aca1480b0e44d36bb11225d9d92e27a1efe869c31293c064736f6c634300080f0033",
  "linkReferences": {},
  "deployedLinkReferences": {}
}