{
  "_format": "hh-sol-artifact-1",
  "contractName": "PurchaseEscrowPlatformV1",
  "sourceName": "contracts/PurchaseEscrowPlatformV1.sol",
  "abi": [
    {
      "inputs": [],
      "stateMutability": "nonpayable",
      "type": "constructor"
    },
    {
      "inputs": [],
      "name": "CancelFailed",
      "type": "error"
    },
    {
      "inputs": [],
      "name": "EscrowNotExpired",
      "type": "error"
    },
    {
      "inputs": [],
      "name": "InvalidAddress",
      "type": "error"
    },
    {
      "inputs": [],
      "name": "InvalidCaller",
      "type": "error"
    },
    {
      "inputs": [],
      "name": "InvalidDuration",
      "type": "error"
    },
    {
      "inputs": [],
      "name": "InvalidOrderHash",
      "type": "error"
    },
    {
      "inputs": [],
      "name": "InvalidPayment",
      "type": "error"
    },
    {
      "inputs": [],
      "name": "InvalidRepayment",
      "type": "error"
    },
    {
      "inputs": [],
      "name": "InvalidSignature",
      "type": "error"
    },
    {
      "inputs": [],
      "name": "InvalidStatus",
      "type": "error"
    },
    {
      "inputs": [],
      "name": "InvalidToken",
      "type": "error"
    },
    {
      "inputs": [],
      "name": "OrderNotFilled",
      "type": "error"
    },
    {
      "anonymous": false,
      "inputs": [
        {
          "indexed": false,
          "internalType": "uint8",
          "name": "version",
          "type": "uint8"
        }
      ],
      "name": "Initialized",
      "type": "event"
    },
    {
      "anonymous": false,
      "inputs": [
        {
          "indexed": false,
          "internalType": "address",
          "name": "account",
          "type": "address"
        }
      ],
      "name": "Paused",
      "type": "event"
    },
    {
      "anonymous": false,
      "inputs": [
        {
          "indexed": true,
          "internalType": "uint256",
          "name": "escrowId",
          "type": "uint256"
        },
        {
          "indexed": false,
          "internalType": "address",
          "name": "lender",
          "type": "address"
        },
        {
          "indexed": false,
          "internalType": "address",
          "name": "buyer",
          "type": "address"
        },
        {
          "indexed": false,
          "internalType": "address",
          "name": "token",
          "type": "address"
        },
        {
          "indexed": false,
          "internalType": "uint256",
          "name": "tokenId",
          "type": "uint256"
        },
        {
          "indexed": false,
          "internalType": "uint256",
          "name": "principal",
          "type": "uint256"
        },
        {
          "indexed": false,
          "internalType": "uint256",
          "name": "repayment",
          "type": "uint256"
        },
        {
          "indexed": false,
          "internalType": "uint64",
          "name": "duration",
          "type": "uint64"
        }
      ],
      "name": "PurchaseEscrowCreated",
      "type": "event"
    },
    {
      "anonymous": false,
      "inputs": [
        {
          "indexed": true,
          "internalType": "uint256",
          "name": "escrowId",
          "type": "uint256"
        },
        {
          "indexed": false,
          "internalType": "enum IPurchaseEscrow.Marketplace",
          "name": "marketplace",
          "type": "uint8"
        }
      ],
      "name": "PurchaseEscrowDelisted",
      "type": "event"
    },
    {
      "anonymous": false,
      "inputs": [
        {
          "indexed": true,
          "internalType": "uint256",
          "name": "escrowId",
          "type": "uint256"
        }
      ],
      "name": "PurchaseEscrowLiquidated",
      "type": "event"
    },
    {
      "anonymous": false,
      "inputs": [
        {
          "indexed": true,
          "internalType": "uint256",
          "name": "escrowId",
          "type": "uint256"
        },
        {
          "indexed": false,
          "internalType": "enum IPurchaseEscrow.Marketplace",
          "name": "marketplace",
          "type": "uint8"
        },
        {
          "indexed": false,
          "internalType": "bytes",
          "name": "listingData",
          "type": "bytes"
        }
      ],
      "name": "PurchaseEscrowListed",
      "type": "event"
    },
    {
      "anonymous": false,
      "inputs": [
        {
          "indexed": true,
          "internalType": "uint256",
          "name": "escrowId",
          "type": "uint256"
        }
      ],
      "name": "PurchaseEscrowRepaid",
      "type": "event"
    },
    {
      "anonymous": false,
      "inputs": [
        {
          "indexed": true,
          "internalType": "uint256",
          "name": "escrowId",
          "type": "uint256"
        },
        {
          "indexed": false,
          "internalType": "enum IPurchaseEscrow.Marketplace",
          "name": "marketplace",
          "type": "uint8"
        }
      ],
      "name": "PurchaseEscrowSold",
      "type": "event"
    },
    {
      "anonymous": false,
      "inputs": [
        {
          "indexed": true,
          "internalType": "uint256",
          "name": "escrowId",
          "type": "uint256"
        },
        {
          "indexed": false,
          "internalType": "address",
          "name": "from",
          "type": "address"
        },
        {
          "indexed": false,
          "internalType": "address",
          "name": "to",
          "type": "address"
        }
      ],
      "name": "PurchaseEscrowTransferred",
      "type": "event"
    },
    {
      "anonymous": false,
      "inputs": [
        {
          "indexed": true,
          "internalType": "bytes32",
          "name": "role",
          "type": "bytes32"
        },
        {
          "indexed": true,
          "internalType": "bytes32",
          "name": "previousAdminRole",
          "type": "bytes32"
        },
        {
          "indexed": true,
          "internalType": "bytes32",
          "name": "newAdminRole",
          "type": "bytes32"
        }
      ],
      "name": "RoleAdminChanged",
      "type": "event"
    },
    {
      "anonymous": false,
      "inputs": [
        {
          "indexed": true,
          "internalType": "bytes32",
          "name": "role",
          "type": "bytes32"
        },
        {
          "indexed": true,
          "internalType": "address",
          "name": "account",
          "type": "address"
        },
        {
          "indexed": true,
          "internalType": "address",
          "name": "sender",
          "type": "address"
        }
      ],
      "name": "RoleGranted",
      "type": "event"
    },
    {
      "anonymous": false,
      "inputs": [
        {
          "indexed": true,
          "internalType": "bytes32",
          "name": "role",
          "type": "bytes32"
        },
        {
          "indexed": true,
          "internalType": "address",
          "name": "account",
          "type": "address"
        },
        {
          "indexed": true,
          "internalType": "address",
          "name": "sender",
          "type": "address"
        }
      ],
      "name": "RoleRevoked",
      "type": "event"
    },
    {
      "anonymous": false,
      "inputs": [
        {
          "indexed": false,
          "internalType": "address",
          "name": "account",
          "type": "address"
        }
      ],
      "name": "Unpaused",
      "type": "event"
    },
    {
      "inputs": [],
      "name": "DEFAULT_ADMIN_ROLE",
      "outputs": [
        {
          "internalType": "bytes32",
          "name": "",
          "type": "bytes32"
        }
      ],
      "stateMutability": "view",
      "type": "function"
    },
    {
      "inputs": [],
      "name": "EMERGENCY_ADMIN_ROLE",
      "outputs": [
        {
          "internalType": "bytes32",
          "name": "",
          "type": "bytes32"
        }
      ],
      "stateMutability": "view",
      "type": "function"
    },
    {
      "inputs": [],
      "name": "IMPLEMENTATION_VERSION",
      "outputs": [
        {
          "internalType": "string",
          "name": "",
          "type": "string"
        }
      ],
      "stateMutability": "view",
      "type": "function"
    },
    {
      "inputs": [],
      "name": "cancelAllListings",
      "outputs": [],
      "stateMutability": "nonpayable",
      "type": "function"
    },
    {
      "inputs": [
        {
          "internalType": "uint256",
          "name": "escrowId",
          "type": "uint256"
        },
        {
          "internalType": "enum IPurchaseEscrow.Marketplace",
          "name": "",
          "type": "uint8"
        },
        {
          "internalType": "bytes",
          "name": "listingData",
          "type": "bytes"
        }
      ],
      "name": "cancelListing",
      "outputs": [],
      "stateMutability": "nonpayable",
      "type": "function"
    },
    {
      "inputs": [
        {
          "internalType": "uint256",
          "name": "escrowId",
          "type": "uint256"
        },
        {
          "internalType": "enum IPurchaseEscrow.Marketplace",
          "name": "",
          "type": "uint8"
        }
      ],
      "name": "checkListingStatus",
      "outputs": [
        {
          "internalType": "bool",
          "name": "filled",
          "type": "bool"
        }
      ],
      "stateMutability": "view",
      "type": "function"
    },
    {
      "inputs": [
        {
          "internalType": "bytes",
          "name": "data",
          "type": "bytes"
        }
      ],
      "name": "checkUpkeep",
      "outputs": [
        {
          "internalType": "bool",
          "name": "",
          "type": "bool"
        },
        {
          "internalType": "bytes",
          "name": "",
          "type": "bytes"
        }
      ],
      "stateMutability": "view",
      "type": "function"
    },
    {
      "inputs": [
        {
          "internalType": "address",
          "name": "buyer",
          "type": "address"
        },
        {
          "internalType": "contract IERC721",
          "name": "token",
          "type": "address"
        },
        {
          "internalType": "uint256",
          "name": "tokenId",
          "type": "uint256"
        },
        {
          "internalType": "uint256",
          "name": "principal",
          "type": "uint256"
        },
        {
          "internalType": "uint256",
          "name": "repayment",
          "type": "uint256"
        },
        {
          "internalType": "uint64",
          "name": "duration",
          "type": "uint64"
        }
      ],
      "name": "create",
      "outputs": [
        {
          "internalType": "uint256",
          "name": "",
          "type": "uint256"
        }
      ],
      "stateMutability": "nonpayable",
      "type": "function"
    },
    {
      "inputs": [
        {
          "internalType": "uint256",
          "name": "escrowId",
          "type": "uint256"
        },
        {
          "internalType": "enum IPurchaseEscrow.Marketplace",
          "name": "",
          "type": "uint8"
        },
        {
          "internalType": "uint256",
          "name": "consideration",
          "type": "uint256"
        },
        {
          "internalType": "uint256",
          "name": "startTime",
          "type": "uint256"
        },
        {
          "internalType": "uint256",
          "name": "expiration",
          "type": "uint256"
        },
        {
          "internalType": "uint256",
          "name": "salt",
          "type": "uint256"
        },
        {
          "internalType": "bytes",
          "name": "signature",
          "type": "bytes"
        }
      ],
      "name": "createListing",
      "outputs": [],
      "stateMutability": "nonpayable",
      "type": "function"
    },
    {
      "inputs": [],
      "name": "currencyToken",
      "outputs": [
        {
          "internalType": "contract IERC20",
          "name": "",
          "type": "address"
        }
      ],
      "stateMutability": "view",
      "type": "function"
    },
    {
      "inputs": [
        {
          "internalType": "uint256",
          "name": "escrowId",
          "type": "uint256"
        },
        {
          "internalType": "enum IPurchaseEscrow.Marketplace",
          "name": "",
          "type": "uint8"
        },
        {
          "internalType": "uint256",
          "name": "consideration",
          "type": "uint256"
        },
        {
          "internalType": "uint256",
          "name": "startTime",
          "type": "uint256"
        },
        {
          "internalType": "uint256",
          "name": "expiration",
          "type": "uint256"
        },
        {
          "internalType": "uint256",
          "name": "salt",
          "type": "uint256"
        }
      ],
      "name": "generateListing",
      "outputs": [
        {
          "internalType": "bytes",
          "name": "",
          "type": "bytes"
        }
      ],
      "stateMutability": "view",
      "type": "function"
    },
    {
      "inputs": [
        {
          "internalType": "bytes32",
          "name": "role",
          "type": "bytes32"
        }
      ],
      "name": "getRoleAdmin",
      "outputs": [
        {
          "internalType": "bytes32",
          "name": "",
          "type": "bytes32"
        }
      ],
      "stateMutability": "view",
      "type": "function"
    },
    {
      "inputs": [
        {
          "internalType": "bytes32",
          "name": "role",
          "type": "bytes32"
        },
        {
          "internalType": "address",
          "name": "account",
          "type": "address"
        }
      ],
      "name": "grantRole",
      "outputs": [],
      "stateMutability": "nonpayable",
      "type": "function"
    },
    {
      "inputs": [
        {
          "internalType": "bytes32",
          "name": "role",
          "type": "bytes32"
        },
        {
          "internalType": "address",
          "name": "account",
          "type": "address"
        }
      ],
      "name": "hasRole",
      "outputs": [
        {
          "internalType": "bool",
          "name": "",
          "type": "bool"
        }
      ],
      "stateMutability": "view",
      "type": "function"
    },
    {
      "inputs": [
        {
          "internalType": "contract IERC20",
          "name": "currencyToken_",
          "type": "address"
        },
        {
          "internalType": "contract PurchaseEscrowNoteToken",
          "name": "lenderNoteToken_",
          "type": "address"
        },
        {
          "internalType": "contract SeaportLister",
          "name": "seaportLister_",
          "type": "address"
        }
      ],
      "name": "initialize",
      "outputs": [],
      "stateMutability": "nonpayable",
      "type": "function"
    },
    {
      "inputs": [
        {
          "internalType": "bytes32",
          "name": "digest",
          "type": "bytes32"
        },
        {
          "internalType": "bytes",
          "name": "signature",
          "type": "bytes"
        }
      ],
      "name": "isValidSignature",
      "outputs": [
        {
          "internalType": "bytes4",
          "name": "",
          "type": "bytes4"
        }
      ],
      "stateMutability": "view",
      "type": "function"
    },
    {
      "inputs": [],
      "name": "lenderNoteToken",
      "outputs": [
        {
          "internalType": "contract IERC721",
          "name": "",
          "type": "address"
        }
      ],
      "stateMutability": "view",
      "type": "function"
    },
    {
      "inputs": [
        {
          "internalType": "uint256",
          "name": "escrowId",
          "type": "uint256"
        }
      ],
      "name": "liquidate",
      "outputs": [],
      "stateMutability": "nonpayable",
      "type": "function"
    },
    {
      "inputs": [
        {
          "internalType": "address",
          "name": "",
          "type": "address"
        },
        {
          "internalType": "address",
          "name": "",
          "type": "address"
        },
        {
          "internalType": "uint256",
          "name": "",
          "type": "uint256"
        },
        {
          "internalType": "bytes",
          "name": "",
          "type": "bytes"
        }
      ],
      "name": "onERC721Received",
      "outputs": [
        {
          "internalType": "bytes4",
          "name": "",
          "type": "bytes4"
        }
      ],
      "stateMutability": "nonpayable",
      "type": "function"
    },
    {
      "inputs": [],
      "name": "pause",
      "outputs": [],
      "stateMutability": "nonpayable",
      "type": "function"
    },
    {
      "inputs": [],
      "name": "paused",
      "outputs": [
        {
          "internalType": "bool",
          "name": "",
          "type": "bool"
        }
      ],
      "stateMutability": "view",
      "type": "function"
    },
    {
      "inputs": [
        {
          "internalType": "bytes",
          "name": "performData",
          "type": "bytes"
        }
      ],
      "name": "performUpkeep",
      "outputs": [],
      "stateMutability": "nonpayable",
      "type": "function"
    },
    {
      "inputs": [
        {
          "internalType": "uint256",
          "name": "escrowId",
          "type": "uint256"
        },
        {
          "internalType": "enum IPurchaseEscrow.Marketplace",
          "name": "",
          "type": "uint8"
        }
      ],
      "name": "processSale",
      "outputs": [],
      "stateMutability": "nonpayable",
      "type": "function"
    },
    {
      "inputs": [
        {
          "internalType": "uint256",
          "name": "escrowId",
          "type": "uint256"
        }
      ],
      "name": "purchaseEscrows",
      "outputs": [
        {
          "components": [
            {
              "internalType": "enum IPurchaseEscrow.PurchaseEscrowStatus",
              "name": "status",
              "type": "uint8"
            },
            {
              "internalType": "contract IERC721",
              "name": "token",
              "type": "address"
            },
            {
              "internalType": "address",
              "name": "buyer",
              "type": "address"
            },
            {
              "internalType": "uint256",
              "name": "tokenId",
              "type": "uint256"
            },
            {
              "internalType": "uint256",
              "name": "principal",
              "type": "uint256"
            },
            {
              "internalType": "uint256",
              "name": "repayment",
              "type": "uint256"
            },
            {
              "internalType": "uint64",
              "name": "startTime",
              "type": "uint64"
            },
            {
              "internalType": "uint64",
              "name": "duration",
              "type": "uint64"
            },
            {
              "internalType": "bytes32",
              "name": "orderHash",
              "type": "bytes32"
            }
          ],
          "internalType": "struct IPurchaseEscrow.PurchaseEscrowTerms",
          "name": "",
          "type": "tuple"
        }
      ],
      "stateMutability": "view",
      "type": "function"
    },
    {
      "inputs": [
        {
          "internalType": "bytes32",
          "name": "role",
          "type": "bytes32"
        },
        {
          "internalType": "address",
          "name": "account",
          "type": "address"
        }
      ],
      "name": "renounceRole",
      "outputs": [],
      "stateMutability": "nonpayable",
      "type": "function"
    },
    {
      "inputs": [
        {
          "internalType": "uint256",
          "name": "escrowId",
          "type": "uint256"
        }
      ],
      "name": "repay",
      "outputs": [],
      "stateMutability": "nonpayable",
      "type": "function"
    },
    {
      "inputs": [
        {
          "internalType": "uint256",
          "name": "escrowId",
          "type": "uint256"
        }
      ],
      "name": "repayETH",
      "outputs": [],
      "stateMutability": "payable",
      "type": "function"
    },
    {
      "inputs": [
        {
          "internalType": "bytes32",
          "name": "role",
          "type": "bytes32"
        },
        {
          "internalType": "address",
          "name": "account",
          "type": "address"
        }
      ],
      "name": "revokeRole",
      "outputs": [],
      "stateMutability": "nonpayable",
      "type": "function"
    },
    {
      "inputs": [],
      "name": "seaportLister",
      "outputs": [
        {
          "internalType": "contract SeaportLister",
          "name": "",
          "type": "address"
        }
      ],
      "stateMutability": "view",
      "type": "function"
    },
    {
      "inputs": [
        {
          "internalType": "string",
          "name": "baseURI",
          "type": "string"
        }
      ],
      "name": "setLenderNoteTokenBaseURI",
      "outputs": [],
      "stateMutability": "nonpayable",
      "type": "function"
    },
    {
      "inputs": [
        {
          "internalType": "bytes",
          "name": "orderConstants",
          "type": "bytes"
        }
      ],
      "name": "setOrderConstants",
      "outputs": [],
      "stateMutability": "nonpayable",
      "type": "function"
    },
    {
      "inputs": [
        {
          "internalType": "contract SeaportLister",
          "name": "seaportLister_",
          "type": "address"
        }
      ],
      "name": "setSeaportLister",
      "outputs": [],
      "stateMutability": "nonpayable",
      "type": "function"
    },
    {
      "inputs": [
        {
          "internalType": "bytes4",
          "name": "interfaceId",
          "type": "bytes4"
        }
      ],
      "name": "supportsInterface",
      "outputs": [
        {
          "internalType": "bool",
          "name": "",
          "type": "bool"
        }
      ],
      "stateMutability": "view",
      "type": "function"
    },
    {
      "inputs": [
        {
          "internalType": "uint256",
          "name": "escrowId",
          "type": "uint256"
        },
        {
          "internalType": "address",
          "name": "target",
          "type": "address"
        },
        {
          "internalType": "bytes",
          "name": "data",
          "type": "bytes"
        }
      ],
      "name": "transferAndCall",
      "outputs": [],
      "stateMutability": "payable",
      "type": "function"
    },
    {
      "inputs": [],
      "name": "unpause",
      "outputs": [],
      "stateMutability": "nonpayable",
      "type": "function"
    },
    {
      "inputs": [
        {
          "internalType": "address",
          "name": "token",
          "type": "address"
        },
        {
          "internalType": "uint256",
          "name": "amount",
          "type": "uint256"
        }
      ],
      "name": "withdrawERC20",
      "outputs": [],
      "stateMutability": "nonpayable",
      "type": "function"
    },
    {
      "inputs": [
        {
          "internalType": "uint256",
          "name": "amount",
          "type": "uint256"
        }
      ],
      "name": "withdrawETH",
      "outputs": [],
      "stateMutability": "nonpayable",
      "type": "function"
    },
    {
      "stateMutability": "payable",
      "type": "receive"
    }
  ],
  "bytecode": "0x6080604052346200002557620000146200002a565b50604051613e859081620000ee8239f35b600080fd5b60005460ff8160081c16600014620000875760405162461bcd60e51b815260206004820152602e602482015260008051602062003f7383398151915260448201526d191e481a5b9a5d1a585b1a5e995960921b6064820152608490fd5b60ff8082161015620000a25760ff191660ff17600055600190565b60405162461bcd60e51b815260206004820152602e602482015260008051602062003f7383398151915260448201526d191e481a5b9a5d1a585b1a5e995960921b6064820152608490fdfe6080604052600436101561001b575b361561001957600080fd5b005b60003560e01c806301ffc9a7146102ff578063150b7a02146102f65780631626ba7e146102ed5780632247463e146102e4578063248a9ca3146102db5780632f2ff15d146102d257806332322942146102c95780633252173e146102c057806335b4ac3e146102b757806336568abe146102ae578063371fd8e6146102a55780633f4ba83a1461029c578063415f1240146102935780634585e33b1461028a5780635c975abb146102815780635e277bd51461027857806361be3cd91461026f578063627dabfd146102665780636b2fa3741461025d5780636e04ff0d146102545780636e76fc8f1461024b578063754b377c14610242578063756906f0146102395780638456cb591461023057806391d1485414610227578063a1db97821461021e578063a217fddf14610215578063a2d8855b1461020c578063a793a3e414610203578063af773b9c146101fa578063c0c53b8b146101f1578063c9b63edf146101e8578063cbb4bfba146101df578063d547741f146101d6578063f14210a6146101cd578063f8f830c9146101c45763fbb140780361000e576101bf61280c565b61000e565b506101bf612718565b506101bf612601565b506101bf6125be565b506101bf612593565b506101bf612484565b506101bf612324565b506101bf612100565b506101bf612045565b506101bf611e20565b506101bf611e03565b506101bf611dc6565b506101bf611d6f565b506101bf611d0f565b506101bf611cdd565b506101bf611c98565b506101bf611c17565b506101bf611be0565b506101bf611b5c565b506101bf6119fb565b506101bf61199e565b506101bf611914565b506101bf6118f0565b506101bf611660565b506101bf6113c0565b506101bf61132b565b506101bf611147565b506101bf6110b0565b506101bf610d97565b506101bf610a39565b506101bf610a00565b506101bf610924565b506101bf6108f4565b506101bf6105e4565b506101bf610583565b506101bf6104eb565b506101bf61031f565b6001600160e01b031981160361031a57565b600080fd5b503461031a57602036600319011261031a57602060043561033f81610308565b63ffffffff60e01b16630a85bd0160e11b81149081156103af575b811561039e575b8115610373575b506040519015158152f35b637965db0b60e01b81149150811561038d575b5038610368565b6301ffc9a760e01b14905038610386565b6315c08e1b60e11b81149150610361565b630b135d3f60e11b8114915061035a565b6001600160a01b0381160361031a57565b50634e487b7160e01b600052604160045260246000fd5b6001600160401b0381116103fb57604052565b6104036103d1565b604052565b61012081019081106001600160401b038211176103fb57604052565b604081019081106001600160401b038211176103fb57604052565b606081019081106001600160401b038211176103fb57604052565b90601f801991011681019081106001600160401b038211176103fb57604052565b6040519061048882610408565b565b6020906001600160401b0381116104a7575b601f01601f19160190565b6104af6103d1565b61049c565b9291926104c08261048a565b916104ce604051938461045a565b82948184528183011161031a578281602093846000960137010152565b503461031a57608036600319011261031a576105086004356103c0565b6105136024356103c0565b6064356001600160401b03811161031a573660238201121561031a576105439036906024816004013591016104b4565b50604051630a85bd0160e11b8152602090f35b9181601f8401121561031a578235916001600160401b03831161031a576020838186019501011161031a57565b503461031a57604036600319011261031a576024356001600160401b03811161031a576105c26105b96020923690600401610556565b90600435613b3e565b6040516001600160e01b03199091168152f35b9081602091031261031a573590565b50602036600319011261031a5760048035610604600260c954141561316c565b600260c95561061d8160005260fd602052604060002090565b600161062a825460ff1690565b6106338161265d565b036108e3576001810154336001600160a01b03909116036108d25782810190815434036108c157805460ff1916600217815561066e83613901565b60fb54610693906106879081906001600160a01b031681565b6001600160a01b031690565b90813b1561031a5761072c85936040518094630d0e30db60e41b8252816000998a97889334905af180156108b4575b6108a1575b5060fb546001600160a01b031660fc549091906106ec906001600160a01b0316610687565b90602060405180936331a9108f60e11b825281806107118d8d83019190602083019252565b03915afa918215610894575b8692610864575b505491613531565b80546002906107469060081c6001600160a01b0316610687565b910154813b156108605760408051632142170760e11b81523086820190815233602082015291820192909252909291839182908490829060600103925af18015610853575b610840575b5060fc5483906107a8906001600160a01b0316610687565b91823b1561083c57604051630852cd8d60e31b8152908101848152909283918290849082906020015b03925af1801561082f575b610816575b50604051907fc8ff15919151c64dd8bcef3c6094a4b2db55ae004075a5dc51b45b17fbe9e3f98383a2610814600160c955565bf35b80610823610829926103e8565b806109f5565b386107e1565b610837613302565b6107dc565b5080fd5b8061082361084d926103e8565b38610790565b61085b613302565b61078b565b8280fd5b61088691925060203d811161088d575b61087e818361045a565b81019061330f565b9038610724565b503d610874565b61089c613302565b61071d565b806108236108ae926103e8565b386106c7565b6108bc613302565b6106c2565b60405163078d696560e31b81528490fd5b6040516348f5c3ed60e01b81528390fd5b6040516307a92f1960e51b81528390fd5b503461031a57602036600319011261031a5760043560005260656020526020600160406000200154604051908152f35b503461031a5760408060031936011261031a5760043590602435610947816103c0565b600092808452606560205261096160018486200154612a4e565b808452606560209081528385206001600160a01b03841660009081529152604090205460ff161561099157505051f35b808452606560209081528385206001600160a01b0384166000908152915260409020805460ff19166001179055825133926001600160a01b031691907f2f8788117e7eff1d82e926ec794901d17c78024a50270940304540a733656f0d908690a451f35b600091031261031a57565b503461031a57600036600319011261031a5760fc546040516001600160a01b039091168152602090f35b60243590600182101561031a57565b503461031a5760e036600319011261031a5760048035610a57610a2a565b5060c4356001600160401b03811161031a57610a769036908401610556565b9290610a8760ff609754161561312d565b610a96600260c954141561316c565b600260c955610ab7610ab28460005260fd602052604060002090565b6130a0565b60018151610ac48161265d565b610acd8161265d565b036108e3576101008101516108e35760408181018051919591336001600160a01b0390911603610d87576101015460fb548751633fafdb3d60e11b815260009990939288928b9186916001600160a01b039182169183918291610b41918d911660a435608435606435604435878e01613748565b03915afa968715610d7a575b8a938b908c968d9a610d3d575b50516020929190610ba2906001600160a01b03165b610b838360005260ff602052604060002090565b80546001600160a01b0319166001600160a01b03909216919091179055565b610bbf8c519485938493630b135d3f60e11b988986528501613794565b0381305afa908115610d30575b8a91610d02575b506001600160e01b03191603610cf257610c5483927fdc0fc35f7e6605af38f83c563616ffc1b286ee59d3883a4a0f33a7b38f51a128926006610c238c99989760005260fd602052604060002090565b0155610c49848060081c600052610100602052600160ff604060002092161b8154179055565b8851918291826137ab565b0390a26020810151606090610c71906001600160a01b0316610687565b91015191813b15610cee57855163095ea7b360e01b81526001600160a01b03909116948101948552602085019290925290928391908290849082906040015b03925af18015610ce1575b610cce575b50610ccb600160c955565b51f35b80610823610cdb926103e8565b38610cc0565b610ce9613302565b610cbb565b8380fd5b8651638baa579f60e01b81528690fd5b610d23915060203d8111610d29575b610d1b818361045a565b81019061377f565b38610bd3565b503d610d11565b610d38613302565b610bcc565b610d6a919a50610ba29750610b6f965060209392508d3d8091833e610d62818361045a565b810190613708565b9b90989297509293509190610b5a565b610d82613302565b610b4d565b85516348f5c3ed60e01b81528590fd5b503461031a5760c036600319011261031a5760048035610db6816103c0565b60243591610dc3836103c0565b6044359160643560843560a435916001600160401b03958684169586850361031a57610df460ff609754161561312d565b610e03600260c954141561316c565b600260c9556001600160a01b0396868816156110a05760fc54610e3090610687906001600160a01b031681565b978a1697881461109057838510611080571561107157610eb360fe5498610e5e610e598b6131b8565b60fe55565b610e7e610e6961047b565b600181529b6001600160a01b031660208d0152565b6001600160a01b03881660408c01528360608c01528460808c01528560a08c0152421660c08b01906001600160401b03169052565b6001600160401b03851660e08a0152610ee86000998a610100820152610ee38a60005260fd602052604060002090565b6131f6565b60fc548990610eff906001600160a01b0316610687565b803b1561083c57604080516340c10f1960e01b815233858201908152602081018d9052909392849290918391859183910103925af18015611064575b611051575b50863b1561104d5760408051632142170760e11b8152339281019283523060208401529082018390526110299989987f55c6e6af823ea8169180c3486f33c869aa41bdda5eb90c32b796a7fa153dc807989097909661100c9691959094919390929091829081906060010381838c5af18015611040575b61102d575b5060405196879633889591936001600160401b039460c0969299989460e089019a60018060a01b0392838092168b521660208a01521660408801526060870152608086015260a085015216910152565b0390a2611019600160c955565b6040519081529081906020820190565b0390f35b8061082361103a926103e8565b38610fbc565b611048613302565b610fb7565b8880fd5b8061082361105e926103e8565b38610f40565b61106c613302565b610f3b565b604051637616640160e01b8152fd5b5060405163166877a960e21b8152fd5b5060405163c1ab6dc160e01b8152fd5b5060405163e6c4247b60e01b8152fd5b503461031a57604036600319011261031a576024356110ce816103c0565b336001600160a01b038216036110ea5761001990600435612c81565b60405162461bcd60e51b815260206004820152602f60248201527f416363657373436f6e74726f6c3a2063616e206f6e6c792072656e6f756e636560448201526e103937b632b9903337b91039b2b63360891b6064820152608490fd5b503461031a57602036600319011261031a576004803561116c600260c954141561316c565b600260c9556111858160005260fd602052604060002090565b6001611192825460ff1690565b61119b8161265d565b036108e3576001810154336001600160a01b03909116036108d257805460ff191660021781556111ca82613901565b60fb54611234906001600160a01b031660fc546111ef906001600160a01b0316610687565b602060405180926331a9108f60e11b825281806112138a8c83019190602083019252565b03915afa90811561131e575b600091611300575b5085840154913390613324565b805460029061124e9060081c6001600160a01b0316610687565b91015490803b1561031a5760408051632142170760e11b81523086820190815233602082015291820193909352600091839182908490829060600103925af180156112f3575b6112e0575b5060fc546112af906001600160a01b0316610687565b91823b1561031a57604051630852cd8d60e31b815290810182815260009384918391908290849082906020016107d1565b806108236112ed926103e8565b38611299565b6112fb613302565b611294565b611318915060203d811161088d5761087e818361045a565b38611227565b611326613302565b61121f565b503461031a57600036600319011261031a57611345612896565b60975460ff8116156113845760ff19166097557f5db9ee0a495bf2e6ff9c91a7834c1ba4fdd244a5e8aa4e537bd38aeae4b073aa6020604051338152a1005b60405162461bcd60e51b815260206004820152601460248201527314185d5cd8589b194e881b9bdd081c185d5cd95960621b6044820152606490fd5b503461031a57602036600319011261031a57600480356113e5600260c954141561316c565b600260c9556113fe8160005260fd602052604060002090565b600161140b825460ff1690565b6114148161265d565b036108e35760fc5461142e906001600160a01b0316610687565b906040916020835180926331a9108f60e11b82528180611455898b83019190602083019252565b03915afa908115611625575b600091611607575b50336001600160a01b03909116036115f7576114a661149a60058301546001600160401b038082871c16911661356a565b6001600160401b031690565b42106115e757805460ff191660031781556114c083613901565b80546002906114da9060081c6001600160a01b0316610687565b91015490803b1561031a578251632142170760e11b815230868201908152336020820152604081019390935291600091839182908490829060600103925af180156115da575b6115c7575b5060fc5461153b906001600160a01b0316610687565b92833b1561031a578151630852cd8d60e31b8152908101838152600094859183919082908490829060200103925af180156115ba575b6115a7575b5051907fc4dac1c7d68cd3ff1964df62f1a92dbe0c659b9ae32f5032a18c953eb7fb4b7e8383a2610814600160c955565b806108236115b4926103e8565b38611576565b6115c2613302565b611571565b806108236115d4926103e8565b38611525565b6115e2613302565b611520565b8151635b3d0edd60e01b81528490fd5b81516348f5c3ed60e01b81528490fd5b61161f915060203d811161088d5761087e818361045a565b38611469565b61162d613302565b611461565b602060031982011261031a57600435906001600160401b03821161031a5761165c91600401610556565b9091565b503461031a5761167a61167236611632565b8101906105d5565b611689600260c954141561316c565b600260c9556116a28160005260fd602052604060002090565b60016116af825460ff1690565b6116b88161265d565b036118de5760066116d38360005260fd602052604060002090565b0154156118cc57610101546116f0906001600160a01b0316610687565b6006820154604080516346423aa760e01b815260048101929092529291602091908290829060249082905afa9081156118bf575b600091611892575b501561188157815460ff191660021782556117aa919061174b85613901565b60fb546001600160a01b031660fc5490929061176f906001600160a01b0316610687565b85516331a9108f60e11b815260048101889052908390829060249082905afa928315611874575b600093611850575b50506004015491613531565b60fc546117bf906001600160a01b0316610687565b91823b1561031a578151630852cd8d60e31b81526004810182905260009384908290818381602481015b03925af18015611843575b611830575b508151600081527f04d747c2dfcfe244e269f4a8e15b6f70016de4ad93883ebab1d6d535265ccc7290602090a2610ccb600160c955565b8061082361183d926103e8565b386117f9565b61184b613302565b6117f4565b6004929350908161186c92903d1061088d5761087e818361045a565b91903861179e565b61187c613302565b611796565b825163789bae3560e01b8152600490fd5b6118b29150823d84116118b8575b6118aa818361045a565b810190613375565b3861172c565b503d6118a0565b6118c7613302565b611724565b60405163561a411d60e11b8152600490fd5b6040516307a92f1960e51b8152600490fd5b503461031a57600036600319011261031a57602060ff609754166040519015158152f35b503461031a5761192336611632565b6000809261192f612978565b610101546001600160a01b0316803b156108605761196c9383604051809681958294635e277bd560e01b8452602060048501526024840191613586565b03925af18015611991575b611982575b50604051f35b61198b906103e8565b3861197c565b611999613302565b611977565b503461031a57602036600319011261031a576004356119bc816103c0565b6119c4612978565b6001600160a01b031680156119e95761010180546001600160a01b0319169091179055005b60405163e6c4247b60e01b8152600490fd5b50606036600319011261031a57602435600435611a17826103c0565b6044356001600160401b03811161031a57611a36903690600401610556565b9092611a4c8360005260fd602052604060002090565b6001611a59825460ff1690565b611a628161265d565b036118de5760010180546001600160a01b039291903390841603611b4a5780546001600160a01b0319166001600160a01b03831690811790915560408051338152602081019290925285917f9e9a0c7d64a2ef5152f397acaad044a502f36dbdc5ac198c1da16b994a85f0fb9190a2803b151580611b3b575b611ae157005b16803b1561031a57611b0e9360009360405195869485938493630520b9f360e41b855233600486016135a7565b039134905af18015611b2e575b611b2157005b80610823610019926103e8565b611b36613302565b611b1b565b50611b45816135cb565b611adb565b6040516348f5c3ed60e01b8152600490fd5b503461031a57600036600319011261031a5760fb546040516001600160a01b039091168152602090f35b918091926000905b828210611ba6575011611b9f575050565b6000910152565b91508060209183015181860152018291611b8e565b90602091611bd481518092818552858086019101611b86565b601f01601f1916010190565b503461031a57611bf8611bf236611632565b90613a40565b9061102960405192839215158352604060208401526040830190611bbb565b503461031a57600036600319011261031a5760206040517f5c91514091af31f62f596a314af7d5be40146b2f2355969392f055e12e0982fb8152f35b60405190602082018281106001600160401b03821117611c77575b60405260008252565b611c7f6103d1565b611c6e565b906020611c95928181520190611bbb565b90565b503461031a57600036600319011261031a57611029604051611cb981610424565b60038152620312e360ec1b6020820152604051918291602083526020830190611bbb565b503461031a57604036600319011261031a57611cf7610a2a565b506020611d05600435613814565b6040519015158152f35b503461031a57600036600319011261031a57611d29612896565b6001609754611d3b60ff82161561312d565b60ff1916176097557f62e78cea01bee320cd4e420270b5ea74000d11b0c9f74754ebdbfc544b05a2586020604051338152a1005b503461031a57604036600319011261031a57602060ff611dba602435611d94816103c0565b6004356000526065845260406000209060018060a01b0316600052602052604060002090565b54166040519015158152f35b503461031a57604036600319011261031a57610019600435611de7816103c0565b611def612978565b6024359033906001600160a01b0316613531565b503461031a57600036600319011261031a57602060405160008152f35b503461031a57606036600319011261031a5760048035611e3e610a2a565b506044356001600160401b03811161031a57611e5d9036908401610556565b929091611e6f600260c954141561316c565b600260c95561010154611e8a906001600160a01b0316610687565b906040938451809363fb53802560e01b82528180611eae60009a8b968a8401613803565b03915afa8015612038575b8592868791889361200d575b50611edd610ab28560005260fd602052604060002090565b9460018651611eeb8161265d565b611ef48161265d565b03611ffd5761010086015103611fed57611f1b611f289160005260ff602052604060002090565b546001600160a01b031690565b336001600160a01b0390911603610d8757818792918360208194519301915af1611f506134c1565b5015611fdd579081611f628693613901565b8451600081527f76cecaec91b887f9e01c822a823a550f49daf646041ba1fb66b9497c0b6d0ea790602090a26020810151606090611fa8906001600160a01b0316610687565b91015190803b1561086057610cb09383865180968195829463095ea7b360e01b84528301919060206040840193600081520152565b8351638cb4785160e01b81528390fd5b865163561a411d60e11b81528690fd5b87516307a92f1960e51b81528790fd5b9250505061202e9192503d8087833e612026818361045a565b8101906137c3565b9293929138611ec5565b612040613302565b611eb9565b503461031a576000806003193601126120fd57612060612896565b610101548190819060049082906001600160a01b0316604051635f4398fb60e11b815292839182905afa9081156120f0575b829083926120cb575b5082602083519301915af16120ae6134c1565b50156120b957604051f35b604051638cb4785160e01b8152600490fd5b90506120e991503d8084833e6120e1818361045a565b8101906139f4565b903861209b565b6120f8613302565b612092565b80fd5b503461031a5760408060031936011261031a576004908135612120610a2a565b50612130600260c954141561316c565b600260c9556121498160005260fd602052604060002090565b6001612156825460ff1690565b61215f8161265d565b0361231557600661217a8360005260fd602052604060002090565b01541561230657610101546121c3919061219c906001600160a01b0316610687565b6006820154855180926346423aa760e01b8252818060209788958c83019190602083019252565b03915afa9081156122f9575b6000916122dc575b50156122cc57805460ff1916600217815561225b916121f584613901565b60fb5486906001600160a01b031660fc5490939061221b906001600160a01b0316610687565b83885180926331a9108f60e11b8252818061223d8c8983019190602083019252565b03915afa9384156122bf575b6000946122a0575b5050015491613531565b60fc54612270906001600160a01b0316610687565b92833b1561031a578251630852cd8d60e31b815290810182815260009485918391908290849082906020016117e9565b6122b7929450803d1061088d5761087e818361045a565b913880612251565b6122c7613302565b612249565b5050505163789bae3560e01b8152fd5b6122f39150833d85116118b8576118aa818361045a565b386121d7565b612301613302565b6121cf565b50505163561a411d60e11b8152fd5b5050516307a92f1960e51b8152fd5b503461031a57606036600319011261031a57600435612342816103c0565b60243561234e816103c0565b60443561235a816103c0565b612362613007565b9283612470575b6001600160a01b03818116156119e957808416156119e9578216156119e957612419926123d56123f79261239b612f93565b6123a3612f93565b6123ab613047565b6123b361306d565b60018060a01b03166bffffffffffffffffffffffff60a01b60fb54161760fb55565b60018060a01b03166bffffffffffffffffffffffff60a01b60fc54161760fc55565b61010180546001600160a01b0319166001600160a01b03909216919091179055565b61242233612b0e565b61242b33612bb6565b61243157005b61244161ff001960005416600055565b604051600181527f7f26b83ff96e1f2b6a682f133852f6798a09c465da95921460cefb384740249890602090a1005b61010061ff00196000541617600055612369565b503461031a5760c036600319011261031a5761249e610a2a565b506124b8610ab260043560005260fd602052604060002090565b600181516124c58161265d565b6124ce8161265d565b036118de576040810151336001600160a01b0390911603611b4a576101015461102991612548916000919061250b906001600160a01b0316610687565b60fb54612520906001600160a01b0316610687565b604051809581948293633fafdb3d60e11b845260a43560843560643560443560048801613748565b03915afa908115612586575b600091612569575b5060405191829182611c84565b61257c913d8091833e610d62818361045a565b509150503861255c565b61258e613302565b612554565b503461031a57600036600319011261031a57610101546040516001600160a01b039091168152602090f35b503461031a57604036600319011261031a576100196024356004356125e2826103c0565b8060005260656020526125fc600160406000200154612a4e565b612c81565b503461031a57602036600319011261031a576000808080600435612623612978565b81811561263d575b3390f11561263557005b610019613302565b506108fc61262b565b50634e487b7160e01b600052602160045260246000fd5b6004111561266757565b610488612646565b805160048110156126fa575b82526020818101516001600160a01b0316908301526040818101516001600160a01b031690830152606081015160608301526080810151608083015260a081015160a08301526126db60c082015160c08401906001600160401b03169052565b60e0818101516001600160401b03169083015261010080910151910152565b612702612646565b61267b565b61012081019291610488919061266f565b503461031a57602036600319011261031a57611029604080519061273b82610408565b80600080845280602085015280828501528060608501528060808501528060a08501528060c08501528060e08501528061010080950152600435815260fd6020522091600661278861047b565b936127ae815461279b60ff821688613089565b60081c6001600160a01b03166020870152565b60018101546001600160a01b0316848601526002810154606086015260038101546080860152600481015460a086015260058101546001600160401b0380821660c088015290851c1660e08601520154908301525191829182612707565b503461031a57600060203660031901126120fd57806004356001600160401b0381116128935736602382011215612893576128519036906024816004013591016104b4565b612859612978565b60fc546001600160a01b031690813b1561288f57829161196c916040519485809481936355f804b360e01b835260048301611c84565b5050fd5b50fd5b3360009081527f03ccc0545d6c27158f98c0f8a8bd78360ad3deb81d982067eb3b3cac29d611b8602052604090205460ff16156128cf57565b612974604861295c6128e033612e24565b61294e6128eb612ea3565b6040519485937f416363657373436f6e74726f6c3a206163636f756e7420000000000000000000602086015261292b815180926020603789019101611b86565b84017001034b99036b4b9b9b4b733903937b6329607d1b60378201520190612af7565b03601f19810183528261045a565b60405162461bcd60e51b815291829160048301611c84565b0390fd5b3360009081527fffdfc1249c027f9191656349feb0761381bb32c9f557e01f419fd08754bf5a1b602052604090205460ff16156129b157565b6129ba33612e24565b60006129c4612d28565b9060306129d083612d78565b5360786129dc83612d8e565b5360415b600181116129ff57612974604861295c8661294e876128eb8815612dd9565b9080600f612a3c92166010811015612a41575b6f181899199a1a9b1b9c1cb0b131b232b360811b901a612a328486612d9f565b5360041c91612dbe565b6129e0565b612a49612d61565b612a12565b600081815260656020908152604080832033845290915290205460ff1615612a735750565b612a7c33612e24565b90612a85612d28565b906030612a9183612d78565b536078612a9d83612d8e565b5360415b60018111612ac057612974604861295c8661294e876128eb8815612dd9565b9080600f612af292166010811015612a41576f181899199a1a9b1b9c1cb0b131b232b360811b901a612a328486612d9f565b612aa1565b90612b0a60209282815194859201611b86565b0190565b6001600160a01b03811660009081527fffdfc1249c027f9191656349feb0761381bb32c9f557e01f419fd08754bf5a1b602052604081205460ff1615612b52575050565b8080526065602090815260408083206001600160a01b038516600090815292529020805460ff1916600117905560405133926001600160a01b031691907f2f8788117e7eff1d82e926ec794901d17c78024a50270940304540a733656f0d908290a4565b6001600160a01b03811660009081527f03ccc0545d6c27158f98c0f8a8bd78360ad3deb81d982067eb3b3cac29d611b860205260409020547f5c91514091af31f62f596a314af7d5be40146b2f2355969392f055e12e0982fb9060ff1615612c1c575050565b60008181526065602090815260408083206001600160a01b03861684529091529020805460ff1916600117905560405133926001600160a01b031691907f2f8788117e7eff1d82e926ec794901d17c78024a50270940304540a733656f0d90600090a4565b60008181526065602090815260408083206001600160a01b038616845290915290205460ff16612caf575050565b60008181526065602090815260408083206001600160a01b03861684529091529020805460ff1916905560405133926001600160a01b031691907ff6391f5c32d9c69d2a47ea670b442974b53935d1edc7fd64eb21e047a839171b90600090a4565b50634e487b7160e01b600052601160045260246000fd5b60405190608082018281106001600160401b03821117612d54575b604052604282526060366020840137565b612d5c6103d1565b612d43565b50634e487b7160e01b600052603260045260246000fd5b602090805115612d86570190565b612b0a612d61565b602190805160011015612d86570190565b906020918051821015612db157010190565b612db9612d61565b010190565b8015612dcc575b6000190190565b612dd4612d11565b612dc5565b15612de057565b606460405162461bcd60e51b815260206004820152602060248201527f537472696e67733a20686578206c656e67746820696e73756666696369656e746044820152fd5b60405190612e318261043f565b602a825260403660208401376030612e4883612d78565b536078612e5483612d8e565b536029905b60018211612e6c57611c95915015612dd9565b80600f612e9d92166010811015612a41576f181899199a1a9b1b9c1cb0b131b232b360811b901a612a328486612d9f565b90612e59565b7f5c91514091af31f62f596a314af7d5be40146b2f2355969392f055e12e0982fb612ecc612d28565b906030612ed883612d78565b536078612ee483612d8e565b536041905b60018211612efc57611c95915015612dd9565b80600f612f2d92166010811015612a41576f181899199a1a9b1b9c1cb0b131b232b360811b901a612a328486612d9f565b90612ee9565b15612f3a57565b60405162461bcd60e51b815260206004820152602b60248201527f496e697469616c697a61626c653a20636f6e7472616374206973206e6f74206960448201526a6e697469616c697a696e6760a81b6064820152608490fd5b61048860ff60005460081c16612f33565b15612fab57565b60405162461bcd60e51b815260206004820152602e60248201527f496e697469616c697a61626c653a20636f6e747261637420697320616c72656160448201526d191e481a5b9a5d1a585b1a5e995960921b6064820152608490fd5b60005460ff8160081c166000146130295750613024303b15612fa4565b600090565b8061303a600160ff81941610612fa4565b60ff191617600055600190565b61306160ff60005460081c1661305c81612f33565b612f33565b60ff1960975416609755565b61308260ff60005460081c1661305c81612f33565b600160c955565b60048210156130955752565b61309d612646565b52565b9060066130ab61047b565b926130d181546130be60ff821687613089565b60081c6001600160a01b03166020860152565b60018101546001600160a01b031660408501526002810154606085015260038101546080850152600481015460a085015260058101546001600160401b0380821660c087015260409190911c1660e08501520154610100830152565b1561313457565b60405162461bcd60e51b815260206004820152601060248201526f14185d5cd8589b194e881c185d5cd95960821b6044820152606490fd5b1561317357565b60405162461bcd60e51b815260206004820152601f60248201527f5265656e7472616e637947756172643a207265656e7472616e742063616c6c006044820152606490fd5b60019060001981146131c8570190565b612b0a612d11565b9060048110156131e9575b60ff80198354169116179055565b6131f1612646565b6131db565b90610100600691613211815161320b8161265d565b856131d0565b6020810151613245906001600160a01b03168554610100600160a81b03191660089190911b610100600160a81b0316178555565b60408101516001850180546001600160a01b0319166001600160a01b03909216919091179055606081015160028501556080810151600385015560a081015160048501556132fb600585016132c46132a760c08501516001600160401b031690565b825467ffffffffffffffff19166001600160401b03909116178255565b60e083015181546fffffffffffffffff0000000000000000191660409190911b6fffffffffffffffff000000000000000016179055565b0151910155565b506040513d6000823e3d90fd5b9081602091031261031a5751611c95816103c0565b6040516323b872dd60e01b60208201526001600160a01b03928316602482015292909116604483015260648201929092526104889161337082608481015b03601f19810184528361045a565b6133ec565b9081602091031261031a5751801515810361031a5790565b1561339457565b60405162461bcd60e51b815260206004820152602a60248201527f5361666545524332303a204552433230206f7065726174696f6e20646964206e6044820152691bdd081cdd58d8d9595960b21b6064820152608490fd5b6040516001600160a01b03919091169161340582610424565b6020928383527f5361666545524332303a206c6f772d6c6576656c2063616c6c206661696c656484840152803b1561347c57600082819282876134579796519301915af16134516134c1565b906134f1565b8051908161346457505050565b8261048893613477938301019101613375565b61338d565b60405162461bcd60e51b815260048101859052601d60248201527f416464726573733a2063616c6c20746f206e6f6e2d636f6e74726163740000006044820152606490fd5b3d156134ec573d906134d28261048a565b916134e0604051938461045a565b82523d6000602084013e565b606090565b909190156134fd575090565b81511561350d5750805190602001fd5b60405162461bcd60e51b815260206004820152908190612974906024830190611bbb565b60405163a9059cbb60e01b60208201526001600160a01b0390921660248301526044820192909252610488916133708260648101613362565b906001600160401b0380809316911680920381116131c8570190565b908060209392818452848401376000828201840152601f01601f1916010190565b611c95949260609260018060a01b0316825260208201528160408201520191613586565b6135d481613600565b90816135ee575b816135e4575090565b611c959150613696565b90506135f981613666565b15906135db565b6000809160405160208101906301ffc9a760e01b8083526024820152602481526136298161043f565b5191617530fa6136376134c1565b80516020811061365e578261364b57505090565b611c959250602080918301019101613375565b505050600090565b6000809160405160208101906301ffc9a760e01b825263ffffffff60e01b6024820152602481526136298161043f565b6000809160405160208101906301ffc9a760e01b8252630520b9f360e41b6024820152602481526136298161043f565b81601f8201121561031a5780516136dc8161048a565b926136ea604051948561045a565b8184526020828401011161031a57611c959160208085019101611b86565b60808183031261031a5780519260208201519260408301516001600160401b03811161031a5760609161373c9185016136c6565b920151611c95816103c0565b919360a09361048896929897956101c08501998552602085015260408401526060830152600180841b03166080820152019061266f565b9081602091031261031a5751611c9581610308565b604090611c95949281528160208201520191613586565b906040611c9592600081528160208201520190611bbb565b9060808282031261031a5781519260208301519260408101516137e5816103c0565b9260608201516001600160401b03811161031a57611c9592016136c6565b916020611c95938181520191613586565b6138288160005260fd602052604060002090565b9060016138496138428360005260fd602052604060002090565b5460ff1690565b6138528161265d565b036138fa5761386d60069160005260fd602052604060002090565b0154156138f457610101546138b891602091600690613894906001600160a01b0316610687565b9101549060405180809581946346423aa760e01b8352600483019190602083019252565b03915afa9081156138e7575b6000916138cf575090565b611c95915060203d81116118b8576118aa818361045a565b6138ef613302565b6138c4565b50600090565b5050600090565b60066139178260005260fd602052604060002090565b01805480156139ef5761010154604051630d7f848960e01b81526004810192909252602090829060249082906001600160a01b03165afa9081156139e2575b6000916139af575b50610488929161398d61397d60009360005260ff602052604060002090565b80546001600160a01b0319169055565b558060081c600052610100602052600160ff604060002092161b198154169055565b906020823d82116139da575b816139c86020938361045a565b810103126120fd57505161048861395e565b3d91506139bb565b6139ea613302565b613956565b505050565b91909160408184031261031a578051613a0c816103c0565b9260208201516001600160401b03811161031a57611c9592016136c6565b919082604091031261031a576020823592013590565b9060008115613b1e575081613a5a91613a6a930190613a2a565b9190915b60fe5460081c90613b2c565b905b81811115613a81575050600090611c95611c53565b60005b6101008110613a9c5750613a97906131b8565b613a6c565b9291613ab382600052610100602052604060002090565b549160019283861b1615613b1157848160081b1794613ad8613ad487613814565b1590565b613afd57505060408051602080820196909652948552613af991508461045a565b9190565b909250613b0c919394506131b8565b613a84565b91509192613b0c906131b8565b915050613a6a600019613a5e565b9080821015613b39575090565b905090565b90613b51613b5791613b5f9436916104b4565b82613d22565b929092613ba1565b600090815260ff60205260409020546001600160a01b03918216911603613b8b57630b135d3f60e11b90565b6001600160e01b031990565b6005111561266757565b613baa81613b97565b80613bb25750565b613bbb81613b97565b60018103613c085760405162461bcd60e51b815260206004820152601860248201527f45434453413a20696e76616c6964207369676e617475726500000000000000006044820152606490fd5b613c1181613b97565b60028103613c5e5760405162461bcd60e51b815260206004820152601f60248201527f45434453413a20696e76616c6964207369676e6174757265206c656e677468006044820152606490fd5b613c6781613b97565b60038103613cbf5760405162461bcd60e51b815260206004820152602260248201527f45434453413a20696e76616c6964207369676e6174757265202773272076616c604482015261756560f01b6064820152608490fd5b80613ccb600492613b97565b14613cd257565b60405162461bcd60e51b815260206004820152602260248201527f45434453413a20696e76616c6964207369676e6174757265202776272076616c604482015261756560f01b6064820152608490fd5b815160418103613d4b57509061165c916020820151906060604084015193015160001a90613d99565b604003613d8f57816040602061165c9401519101519160ff601b84821c9481198611613d82575b600180841b031694011690613d99565b613d8a612d11565b613d72565b5050600090600290565b9291907f7fffffffffffffffffffffffffffffff5d576e7357a4501ddfe92f46681b20a08311613e435760ff16601b81141580613e38575b613e2c579160809493916020936040519384528484015260408301526060820152600093849182805260015afa15613e1f575b81516001600160a01b03811615613e19579190565b50600190565b613e27613302565b613e04565b50505050600090600490565b50601c811415613dd1565b5050505060009060039056fea2646970667358221220155a3c431d17de12f3c54d821588783e3529db805835b819587bd8fe518eae8664736f6c634300080f0033496e697469616c697a61626c653a20636f6e747261637420697320616c726561",
  "linkReferences": {},
  "deployedLinkReferences": {}
}