{
  "_format": "hh-sol-artifact-1",
  "contractName": "PurchaseEscrowNoteToken",
  "sourceName": "contracts/PurchaseEscrowNoteToken.sol",
  "abi": [
    {
      "inputs": [
        {
          "internalType": "string",
          "name": "name",
          "type": "string"
        },
        {
          "internalType": "string",
          "name": "symbol",
          "type": "string"
        }
      ],
      "stateMutability": "nonpayable",
      "type": "constructor"
    },
    {
      "anonymous": false,
      "inputs": [
        {
          "indexed": true,
          "internalType": "address",
          "name": "owner",
          "type": "address"
        },
        {
          "indexed": true,
          "internalType": "address",
          "name": "approved",
          "type": "address"
        },
        {
          "indexed": true,
          "internalType": "uint256",
          "name": "tokenId",
          "type": "uint256"
        }
      ],
      "name": "Approval",
      "type": "event"
    },
    {
      "anonymous": false,
      "inputs": [
        {
          "indexed": true,
          "internalType": "address",
          "name": "owner",
          "type": "address"
        },
        {
          "indexed": true,
          "internalType": "address",
          "name": "operator",
          "type": "address"
        },
        {
          "indexed": false,
          "internalType": "bool",
          "name": "approved",
          "type": "bool"
        }
      ],
      "name": "ApprovalForAll",
      "type": "event"
    },
    {
      "anonymous": false,
      "inputs": [
        {
          "indexed": true,
          "internalType": "address",
          "name": "previousOwner",
          "type": "address"
        },
        {
          "indexed": true,
          "internalType": "address",
          "name": "newOwner",
          "type": "address"
        }
      ],
      "name": "OwnershipTransferred",
      "type": "event"
    },
    {
      "anonymous": false,
      "inputs": [
        {
          "indexed": true,
          "internalType": "address",
          "name": "from",
          "type": "address"
        },
        {
          "indexed": true,
          "internalType": "address",
          "name": "to",
          "type": "address"
        },
        {
          "indexed": true,
          "internalType": "uint256",
          "name": "tokenId",
          "type": "uint256"
        }
      ],
      "name": "Transfer",
      "type": "event"
    },
    {
      "inputs": [
        {
          "internalType": "address",
          "name": "to",
          "type": "address"
        },
        {
          "internalType": "uint256",
          "name": "tokenId",
          "type": "uint256"
        }
      ],
      "name": "approve",
      "outputs": [],
      "stateMutability": "nonpayable",
      "type": "function"
    },
    {
      "inputs": [
        {
          "internalType": "address",
          "name": "owner",
          "type": "address"
        }
      ],
      "name": "balanceOf",
      "outputs": [
        {
          "internalType": "uint256",
          "name": "",
          "type": "uint256"
        }
      ],
      "stateMutability": "view",
      "type": "function"
    },
    {
      "inputs": [
        {
          "internalType": "uint256",
          "name": "tokenId",
          "type": "uint256"
        }
      ],
      "name": "burn",
      "outputs": [],
      "stateMutability": "nonpayable",
      "type": "function"
    },
    {
      "inputs": [
        {
          "internalType": "uint256",
          "name": "tokenId",
          "type": "uint256"
        }
      ],
      "name": "exists",
      "outputs": [
        {
          "internalType": "bool",
          "name": "",
          "type": "bool"
        }
      ],
      "stateMutability": "view",
      "type": "function"
    },
    {
      "inputs": [
        {
          "internalType": "uint256",
          "name": "tokenId",
          "type": "uint256"
        }
      ],
      "name": "getApproved",
      "outputs": [
        {
          "internalType": "address",
          "name": "",
          "type": "address"
        }
      ],
      "stateMutability": "view",
      "type": "function"
    },
    {
      "inputs": [
        {
          "internalType": "address",
          "name": "owner",
          "type": "address"
        },
        {
          "internalType": "address",
          "name": "operator",
          "type": "address"
        }
      ],
      "name": "isApprovedForAll",
      "outputs": [
        {
          "internalType": "bool",
          "name": "",
          "type": "bool"
        }
      ],
      "stateMutability": "view",
      "type": "function"
    },
    {
      "inputs": [
        {
          "internalType": "address",
          "name": "to",
          "type": "address"
        },
        {
          "internalType": "uint256",
          "name": "tokenId",
          "type": "uint256"
        }
      ],
      "name": "mint",
      "outputs": [],
      "stateMutability": "nonpayable",
      "type": "function"
    },
    {
      "inputs": [],
      "name": "name",
      "outputs": [
        {
          "internalType": "string",
          "name": "",
          "type": "string"
        }
      ],
      "stateMutability": "view",
      "type": "function"
    },
    {
      "inputs": [],
      "name": "owner",
      "outputs": [
        {
          "internalType": "address",
          "name": "",
          "type": "address"
        }
      ],
      "stateMutability": "view",
      "type": "function"
    },
    {
      "inputs": [
        {
          "internalType": "uint256",
          "name": "tokenId",
          "type": "uint256"
        }
      ],
      "name": "ownerOf",
      "outputs": [
        {
          "internalType": "address",
          "name": "",
          "type": "address"
        }
      ],
      "stateMutability": "view",
      "type": "function"
    },
    {
      "inputs": [],
      "name": "renounceOwnership",
      "outputs": [],
      "stateMutability": "nonpayable",
      "type": "function"
    },
    {
      "inputs": [
        {
          "internalType": "address",
          "name": "from",
          "type": "address"
        },
        {
          "internalType": "address",
          "name": "to",
          "type": "address"
        },
        {
          "internalType": "uint256",
          "name": "tokenId",
          "type": "uint256"
        }
      ],
      "name": "safeTransferFrom",
      "outputs": [],
      "stateMutability": "nonpayable",
      "type": "function"
    },
    {
      "inputs": [
        {
          "internalType": "address",
          "name": "from",
          "type": "address"
        },
        {
          "internalType": "address",
          "name": "to",
          "type": "address"
        },
        {
          "internalType": "uint256",
          "name": "tokenId",
          "type": "uint256"
        },
        {
          "internalType": "bytes",
          "name": "_data",
          "type": "bytes"
        }
      ],
      "name": "safeTransferFrom",
      "outputs": [],
      "stateMutability": "nonpayable",
      "type": "function"
    },
    {
      "inputs": [
        {
          "internalType": "address",
          "name": "operator",
          "type": "address"
        },
        {
          "internalType": "bool",
          "name": "approved",
          "type": "bool"
        }
      ],
      "name": "setApprovalForAll",
      "outputs": [],
      "stateMutability": "nonpayable",
      "type": "function"
    },
    {
      "inputs": [
        {
          "internalType": "string",
          "name": "baseURI",
          "type": "string"
        }
      ],
      "name": "setBaseURI",
      "outputs": [],
      "stateMutability": "nonpayable",
      "type": "function"
    },
    {
      "inputs": [
        {
          "internalType": "bytes4",
          "name": "interfaceId",
          "type": "bytes4"
        }
      ],
      "name": "supportsInterface",
      "outputs": [
        {
          "internalType": "bool",
          "name": "",
          "type": "bool"
        }
      ],
      "stateMutability": "view",
      "type": "function"
    },
    {
      "inputs": [],
      "name": "symbol",
      "outputs": [
        {
          "internalType": "string",
          "name": "",
          "type": "string"
        }
      ],
      "stateMutability": "view",
      "type": "function"
    },
    {
      "inputs": [
        {
          "internalType": "uint256",
          "name": "tokenId",
          "type": "uint256"
        }
      ],
      "name": "tokenURI",
      "outputs": [
        {
          "internalType": "string",
          "name": "",
          "type": "string"
        }
      ],
      "stateMutability": "view",
      "type": "function"
    },
    {
      "inputs": [
        {
          "internalType": "address",
          "name": "from",
          "type": "address"
        },
        {
          "internalType": "address",
          "name": "to",
          "type": "address"
        },
        {
          "internalType": "uint256",
          "name": "tokenId",
          "type": "uint256"
        }
      ],
      "name": "transferFrom",
      "outputs": [],
      "stateMutability": "nonpayable",
      "type": "function"
    },
    {
      "inputs": [
        {
          "internalType": "address",
          "name": "newOwner",
          "type": "address"
        }
      ],
      "name": "transferOwnership",
      "outputs": [],
      "stateMutability": "nonpayable",
      "type": "function"
    }
  ],
  "bytecode": "0x608060405234620003635762001e78803803806200001d8162000368565b9283398101604082820312620003635781516001600160401b0392908381116200036357826200004f9183016200038e565b906020928382015185811162000363576200006b92016200038e565b9281518181116200034d576000938454916001948584811c9416801562000342575b838510146200032e578190601f94858111620002db575b508390858311600114620002775788926200026b575b5050600019600383901b1c191690851b1785555b8551928311620002575783548481811c911680156200024c575b828210146200023857828111620001f0575b50809183116001146200018a57508394829394926200017e575b5050600019600383901b1c191690821b1790555b60068054336001600160a01b031982168117909255604051926001600160a01b03909116907f8be0079c531659141344cd1fd0a4f28419497f9722a3daafe3b4186f6b6457e09084a3611a669081620004128239f35b01519050388062000114565b90601f198316958486528286209286905b888210620001d85750508385969710620001be575b505050811b01905562000128565b015160001960f88460031b161c19169055388080620001b0565b8087859682949686015181550195019301906200019b565b8486528186208380860160051c8201928487106200022e575b0160051c019085905b82811062000222575050620000fa565b87815501859062000212565b9250819262000209565b634e487b7160e01b86526022600452602486fd5b90607f1690620000e8565b634e487b7160e01b85526041600452602485fd5b015190503880620000ba565b8880528489208894509190601f1984168a5b87828210620002c45750508411620002aa575b505050811b018555620000ce565b015160001960f88460031b161c191690553880806200029c565b8385015186558b9790950194938401930162000289565b9091508780528388208580850160051c82019286861062000324575b918991869594930160051c01915b82811062000315575050620000a4565b8a815585945089910162000305565b92508192620002f7565b634e487b7160e01b87526022600452602487fd5b93607f16936200008d565b634e487b7160e01b600052604160045260246000fd5b600080fd5b6040519190601f01601f191682016001600160401b038111838210176200034d57604052565b81601f8201121562000363578051906001600160401b0382116200034d57602090620003c3601f8401601f1916830162000368565b93838552828483010111620003635782906000905b83838310620003f857505011620003ee57505090565b6000918301015290565b81935082819392010151828288010152018391620003d856fe60806040526004361015610013575b600080fd5b60003560e01c806301ffc9a7146101a357806306fdde031461019a578063081812fc14610191578063095ea7b31461018857806323b872dd1461017f57806340c10f191461017657806342842e0e1461016d57806342966c68146101645780634f558e791461015b57806355f804b3146101525780636352211e1461014957806370a0823114610140578063715018a6146101375780638da5cb5b1461012e57806395d89b4114610125578063a22cb4651461011c578063b88d4fde14610113578063c87b56dd1461010a578063e985e9c5146101015763f2fde38b146100f957600080fd5b61000e610e2c565b5061000e610dce565b5061000e610ce4565b5061000e610c83565b5061000e610b96565b5061000e610af0565b5061000e610ac6565b5061000e610a61565b5061000e6109be565b5061000e61099f565b5061000e610859565b5061000e610759565b5061000e6106a9565b5061000e610680565b5061000e61052b565b5061000e610501565b5061000e6103dc565b5061000e61037f565b5061000e61029b565b5061000e6101be565b6001600160e01b031981160361000e57565b503461000e57602036600319011261000e5760206004356101de816101ac565b63ffffffff60e01b166380ac58cd60e01b811490811561021c575b811561020b575b506040519015158152f35b6301ffc9a760e01b14905038610200565b635b5e139f60e01b811491506101f9565b918091926000905b82821061024d575011610246575050565b6000910152565b91508060209183015181860152018291610235565b9060209161027b8151809281855285808601910161022d565b601f01601f1916010190565b906020610298928181520190610262565b90565b503461000e5760008060031936011261037c57604051908080546102be81610fd6565b8085529160019180831690811561035257506001146102f8575b6102f4856102e8818703826107d5565b60405191829182610287565b0390f35b80809450527f290decd9548b62a8d60345a988386fc84ba6bc95484008f6362f93160ef3e5635b82841061033a5750505081016020016102e8826102f46102d8565b8054602085870181019190915290930192810161031f565b8695506102f4969350602092506102e894915060ff191682840152151560051b82010192936102d8565b80fd5b503461000e57602036600319011261000e57602061039e600435611189565b6040516001600160a01b039091168152f35b600435906001600160a01b038216820361000e57565b602435906001600160a01b038216820361000e57565b503461000e57604036600319011261000e576103f66103b0565b60243561040281610f5e565b916001600160a01b03808416908216811461047d576104349361042f913314908115610436575b50611117565b61163f565b005b6001600160a01b0316600090815260056020526040902061047791506104709033905b9060018060a01b0316600052602052604060002090565b5460ff1690565b38610429565b60405162461bcd60e51b815260206004820152602160248201527f4552433732313a20617070726f76616c20746f2063757272656e74206f776e656044820152603960f91b6064820152608490fd5b606090600319011261000e576001600160a01b0390600435828116810361000e5791602435908116810361000e579060443590565b503461000e57610434610513366104cc565b91610526610521843361131f565b61121b565b6114d0565b503461000e57604036600319011261000e576105456103b0565b60243560018060a01b0361055e81600654163314610ec3565b6040519061056b826107ac565b60008252831691821561063c576104349381610637946105af6105aa6105a684600052600260205260018060a01b0360406000205416151590565b1590565b6119e4565b6001600160a01b03831660009081526003602052604090206105d1815461149b565b905561060a836105eb846000526002602052604060002090565b80546001600160a01b0319166001600160a01b03909216919091179055565b60007fddf252ad1be2c89b69c2b068fc378daa952ba7f163c4a11628f55a4df523b3ef81604051a4611746565b6112fb565b606460405162461bcd60e51b815260206004820152602060248201527f4552433732313a206d696e7420746f20746865207a65726f20616464726573736044820152fd5b503461000e57610434610692366104cc565b90604051926106a0846107ac565b60008452611281565b503461000e57602036600319011261000e5760043560018060a01b036106d481600654163314610ec3565b6106dd82610f5e565b6106e6836115e9565b1660009181835260036020526040832080546001811061074c575b6000190190558083526002602052604080842080546001600160a01b0319169055519183907fddf252ad1be2c89b69c2b068fc378daa952ba7f163c4a11628f55a4df523b3ef8285a4f35b610754611467565b610701565b503461000e57602036600319011261000e576004356000908152600260209081526040909120546001600160a01b031615156040519015158152f35b50634e487b7160e01b600052604160045260246000fd5b6020810190811067ffffffffffffffff8211176107c857604052565b6107d0610795565b604052565b90601f8019910116810190811067ffffffffffffffff8211176107c857604052565b60209067ffffffffffffffff8111610815575b601f01601f19160190565b61081d610795565b61080a565b92919261082e826107f7565b9161083c60405193846107d5565b82948184528183011161000e578281602093846000960137010152565b503461000e5760208060031936011261000e5767ffffffffffffffff60043581811161000e573660238201121561000e5761089e903690602481600401359101610822565b916108b460018060a01b03600654163314610ec3565b8251918211610992575b6108d2826108cd600754610fd6565b611973565b80601f831160011461090b57508192600092610900575b50508160011b916000199060031b1c191617600755005b0151905038806108e9565b90601f1983169361093e60076000527fa66cc928b5edb82af9bd49922954155ab7b0942694bea4ce44661d9a8736c68890565b926000905b86821061097a5750508360019510610961575b505050811b01600755005b015160001960f88460031b161c19169055388080610956565b80600185968294968601518155019501930190610943565b61099a610795565b6108be565b503461000e57602036600319011261000e57602061039e600435610f5e565b503461000e57602036600319011261000e576001600160a01b036109e06103b0565b168015610a095760005260036020526102f4604060002054604051918291829190602083019252565b60405162461bcd60e51b815260206004820152602a60248201527f4552433732313a2062616c616e636520717565727920666f7220746865207a65604482015269726f206164647265737360b01b6064820152608490fd5b503461000e5760008060031936011261037c576006546001600160a01b03811690610a8d338314610ec3565b6001600160a01b0319166006556040519082907f8be0079c531659141344cd1fd0a4f28419497f9722a3daafe3b4186f6b6457e08284a3f35b503461000e57600036600319011261000e576006546040516001600160a01b039091168152602090f35b503461000e5760008060031936011261037c5760405190806001805491610b1683610fd6565b808652928281169081156103525750600114610b3c576102f4856102e8818703826107d5565b92508083527fb10e2d527612073b26eecdfd717e6a320cf44b4afac2b0732d9fcbe2b7fa0cf65b828410610b7e5750505081016020016102e8826102f46102d8565b80546020858701810191909152909301928101610b63565b503461000e57604036600319011261000e57610bb06103b0565b602435801515810361000e576001600160a01b03821691338314610c3e5781610bfb610c0c9233600052600560205260406000209060018060a01b0316600052602052604060002090565b9060ff801983541691151516179055565b604051901515815233907f17307eab39ab6107e8899845ad3d59bd9653f200f220920489ca2b5937696c3190602090a3005b60405162461bcd60e51b815260206004820152601960248201527f4552433732313a20617070726f766520746f2063616c6c6572000000000000006044820152606490fd5b503461000e57608036600319011261000e57610c9d6103b0565b610ca56103c6565b6064359167ffffffffffffffff831161000e573660238401121561000e57610cda610434933690602481600401359101610822565b9160443591611281565b503461000e57602036600319011261000e576004356000818152600260205260409020546001600160a01b031615610d7157610d1e611010565b805115610d5f576102e8610d4b91610d51610d3b6102f49561189c565b6040519485936020850190611100565b90611100565b03601f1981018352826107d5565b50506102f4610d6c6110ce565b6102e8565b60405162461bcd60e51b815260206004820152602f60248201527f4552433732314d657461646174613a2055524920717565727920666f72206e6f60448201526e3732bc34b9ba32b73a103a37b5b2b760891b6064820152608490fd5b503461000e57604036600319011261000e57602060ff610e20610def6103b0565b610df76103c6565b6001600160a01b0391821660009081526005865260408082209290931681526020919091522090565b54166040519015158152f35b503461000e57602036600319011261000e57610e466103b0565b6006546001600160a01b0390610e5f9082163314610ec3565b811615610e6f5761043490610f0e565b60405162461bcd60e51b815260206004820152602660248201527f4f776e61626c653a206e6577206f776e657220697320746865207a65726f206160448201526564647265737360d01b6064820152608490fd5b15610eca57565b606460405162461bcd60e51b815260206004820152602060248201527f4f776e61626c653a2063616c6c6572206973206e6f7420746865206f776e65726044820152fd5b6006549060018060a01b0380911691826bffffffffffffffffffffffff60a01b821617600655167f8be0079c531659141344cd1fd0a4f28419497f9722a3daafe3b4186f6b6457e06000604051a3565b6000908152600260205260409020546001600160a01b03168015610f7f5790565b60405162461bcd60e51b815260206004820152602960248201527f4552433732313a206f776e657220717565727920666f72206e6f6e657869737460448201526832b73a103a37b5b2b760b91b6064820152608490fd5b90600182811c92168015611006575b6020831014610ff057565b634e487b7160e01b600052602260045260246000fd5b91607f1691610fe5565b604051906000826007549161102483610fd6565b808352926001908181169081156110ac575060011461104d575b5061104b925003836107d5565b565b6007600090815291507fa66cc928b5edb82af9bd49922954155ab7b0942694bea4ce44661d9a8736c6885b848310611091575061104b93505081016020013861103e565b81935090816020925483858a01015201910190918592611078565b90506020925061104b94915060ff191682840152151560051b8201013861103e565b604051906020820182811067ffffffffffffffff8211176110f3575b60405260008252565b6110fb610795565b6110ea565b906111136020928281519485920161022d565b0190565b1561111e57565b60405162461bcd60e51b815260206004820152603860248201527f4552433732313a20617070726f76652063616c6c6572206973206e6f74206f7760448201527f6e6572206e6f7220617070726f76656420666f7220616c6c00000000000000006064820152608490fd5b6000818152600260205260409020546001600160a01b0316156111c1576000908152600460205260409020546001600160a01b031690565b60405162461bcd60e51b815260206004820152602c60248201527f4552433732313a20617070726f76656420717565727920666f72206e6f6e657860448201526b34b9ba32b73a103a37b5b2b760a11b6064820152608490fd5b1561122257565b60405162461bcd60e51b815260206004820152603160248201527f4552433732313a207472616e736665722063616c6c6572206973206e6f74206f6044820152701ddb995c881b9bdc88185c1c1c9bdd9959607a1b6064820152608490fd5b9161104b939161063793611298610521843361131f565b6112a38383836114d0565b611807565b60809060208152603260208201527f4552433732313a207472616e7366657220746f206e6f6e20455243373231526560408201527131b2b4bb32b91034b6b83632b6b2b73a32b960711b60608201520190565b1561130257565b60405162461bcd60e51b81528061131b600482016112a8565b0390fd5b6000828152600260205260409020546001600160a01b0316156113b55761134582610f5e565b9160018060a01b0390818316928285168414948515611384575b5050831561136e575b50505090565b61137a91929350611189565b1614388080611368565b6001600160a01b0316600090815260056020526040902091945060ff916113ab9190610459565b541692388061135f565b60405162461bcd60e51b815260206004820152602c60248201527f4552433732313a206f70657261746f7220717565727920666f72206e6f6e657860448201526b34b9ba32b73a103a37b5b2b760a11b6064820152608490fd5b1561141657565b60405162461bcd60e51b8152602060048201526024808201527f4552433732313a207472616e7366657220746f20746865207a65726f206164646044820152637265737360e01b6064820152608490fd5b50634e487b7160e01b600052601160045260246000fd5b6001811061148e575b6000190190565b611496611467565b611487565b60019060011981116114ab570190565b611113611467565b80196030116114c3575b60300190565b6114cb611467565b6114bd565b906114da83610f5e565b6001600160a01b0383811692909182168390036115965761152961156d9282169461150686151561140f565b61150f876115e9565b6001600160a01b0316600090815260036020526040902090565b611533815461147e565b90556001600160a01b0381166000908152600360205260409020611557815461149b565b90556105eb856000526002602052604060002090565b7fddf252ad1be2c89b69c2b068fc378daa952ba7f163c4a11628f55a4df523b3ef6000604051a4565b60405162461bcd60e51b815260206004820152602560248201527f4552433732313a207472616e736665722066726f6d20696e636f72726563742060448201526437bbb732b960d91b6064820152608490fd5b600081815260046020526040812080546001600160a01b03191690556001600160a01b0361161683610f5e565b167f8c5be1e5ebec7d5bd14f71427d1e84f3dd0314c0f7b2291e5b200ac8c7c3b92582604051a4565b600082815260046020526040902080546001600160a01b0319166001600160a01b0383161790556001600160a01b038061167884610f5e565b169116907f8c5be1e5ebec7d5bd14f71427d1e84f3dd0314c0f7b2291e5b200ac8c7c3b9256000604051a4565b9081602091031261000e5751610298816101ac565b610298939260809260018060a01b031682526000602083015260408201528160608201520190610262565b6001600160a01b03918216815291166020820152604081019190915260806060820181905261029892910190610262565b3d15611741573d90611727826107f7565b9161173560405193846107d5565b82523d6000602084013e565b606090565b909190803b156117ff57611778602091600093604051948580948193630a85bd0160e11b998a845233600485016116ba565b03926001600160a01b03165af1600091816117cf575b506117c15761179b611716565b805190816117bc5760405162461bcd60e51b81528061131b600482016112a8565b602001fd5b6001600160e01b0319161490565b6117f191925060203d81116117f8575b6117e981836107d5565b8101906116a5565b903861178e565b503d6117df565b505050600190565b92909190823b1561183a57611778926020926000604051809681958294630a85bd0160e11b9a8b855233600486016116e5565b50505050600190565b9061184d826107f7565b61185a60405191826107d5565b828152809261186b601f19916107f7565b0190602036910137565b908151811015611886570160200190565b634e487b7160e01b600052603260045260246000fd5b8015611936576000818181805b61190c57506118b781611843565b935b6118c35750505090565b6118cc9061147e565b90600a906118f76118e76118e18484066114b3565b60ff1690565b60f81b6001600160f81b03191690565b841a6119038487611875565b530490816118b9565b91506001600a916000198114611929575b019104808492916118a9565b611931611467565b61191d565b506040516040810181811067ffffffffffffffff821117611966575b60405260018152600360fc1b602082015290565b61196e610795565b611952565b601f811161197f575050565b600090600782527fa66cc928b5edb82af9bd49922954155ab7b0942694bea4ce44661d9a8736c688906020601f850160051c830194106119da575b601f0160051c01915b8281106119cf57505050565b8181556001016119c3565b90925082906119ba565b156119eb57565b60405162461bcd60e51b815260206004820152601c60248201527f4552433732313a20746f6b656e20616c7265616479206d696e746564000000006044820152606490fdfea26469706673582212200dff59e261adb1f066aca1480b0e44d36bb11225d9d92e27a1efe869c31293c064736f6c634300080f0033",
  "linkReferences": {},
  "deployedLinkReferences": {}
}