{
  "_format": "hh-sol-artifact-1",
  "contractName": "TestERC721",
  "sourceName": "contracts/test/TestERC721.sol",
  "abi": [
    {
      "inputs": [
        {
          "internalType": "string",
          "name": "name",
          "type": "string"
        },
        {
          "internalType": "string",
          "name": "symbol",
          "type": "string"
        },
        {
          "internalType": "string",
          "name": "baseURI",
          "type": "string"
        }
      ],
      "stateMutability": "nonpayable",
      "type": "constructor"
    },
    {
      "anonymous": false,
      "inputs": [
        {
          "indexed": true,
          "internalType": "address",
          "name": "owner",
          "type": "address"
        },
        {
          "indexed": true,
          "internalType": "address",
          "name": "approved",
          "type": "address"
        },
        {
          "indexed": true,
          "internalType": "uint256",
          "name": "tokenId",
          "type": "uint256"
        }
      ],
      "name": "Approval",
      "type": "event"
    },
    {
      "anonymous": false,
      "inputs": [
        {
          "indexed": true,
          "internalType": "address",
          "name": "owner",
          "type": "address"
        },
        {
          "indexed": true,
          "internalType": "address",
          "name": "operator",
          "type": "address"
        },
        {
          "indexed": false,
          "internalType": "bool",
          "name": "approved",
          "type": "bool"
        }
      ],
      "name": "ApprovalForAll",
      "type": "event"
    },
    {
      "anonymous": false,
      "inputs": [
        {
          "indexed": true,
          "internalType": "address",
          "name": "previousOwner",
          "type": "address"
        },
        {
          "indexed": true,
          "internalType": "address",
          "name": "newOwner",
          "type": "address"
        }
      ],
      "name": "OwnershipTransferred",
      "type": "event"
    },
    {
      "anonymous": false,
      "inputs": [
        {
          "indexed": true,
          "internalType": "address",
          "name": "from",
          "type": "address"
        },
        {
          "indexed": true,
          "internalType": "address",
          "name": "to",
          "type": "address"
        },
        {
          "indexed": true,
          "internalType": "uint256",
          "name": "tokenId",
          "type": "uint256"
        }
      ],
      "name": "Transfer",
      "type": "event"
    },
    {
      "inputs": [
        {
          "internalType": "address",
          "name": "to",
          "type": "address"
        },
        {
          "internalType": "uint256",
          "name": "tokenId",
          "type": "uint256"
        }
      ],
      "name": "approve",
      "outputs": [],
      "stateMutability": "nonpayable",
      "type": "function"
    },
    {
      "inputs": [
        {
          "internalType": "address",
          "name": "owner",
          "type": "address"
        }
      ],
      "name": "balanceOf",
      "outputs": [
        {
          "internalType": "uint256",
          "name": "",
          "type": "uint256"
        }
      ],
      "stateMutability": "view",
      "type": "function"
    },
    {
      "inputs": [
        {
          "internalType": "uint256",
          "name": "tokenId",
          "type": "uint256"
        }
      ],
      "name": "burn",
      "outputs": [],
      "stateMutability": "nonpayable",
      "type": "function"
    },
    {
      "inputs": [
        {
          "internalType": "uint256",
          "name": "tokenId",
          "type": "uint256"
        }
      ],
      "name": "getApproved",
      "outputs": [
        {
          "internalType": "address",
          "name": "",
          "type": "address"
        }
      ],
      "stateMutability": "view",
      "type": "function"
    },
    {
      "inputs": [
        {
          "internalType": "address",
          "name": "owner",
          "type": "address"
        },
        {
          "internalType": "address",
          "name": "operator",
          "type": "address"
        }
      ],
      "name": "isApprovedForAll",
      "outputs": [
        {
          "internalType": "bool",
          "name": "",
          "type": "bool"
        }
      ],
      "stateMutability": "view",
      "type": "function"
    },
    {
      "inputs": [
        {
          "internalType": "address",
          "name": "to",
          "type": "address"
        },
        {
          "internalType": "uint256",
          "name": "tokenId",
          "type": "uint256"
        }
      ],
      "name": "mint",
      "outputs": [],
      "stateMutability": "nonpayable",
      "type": "function"
    },
    {
      "inputs": [],
      "name": "name",
      "outputs": [
        {
          "internalType": "string",
          "name": "",
          "type": "string"
        }
      ],
      "stateMutability": "view",
      "type": "function"
    },
    {
      "inputs": [],
      "name": "owner",
      "outputs": [
        {
          "internalType": "address",
          "name": "",
          "type": "address"
        }
      ],
      "stateMutability": "view",
      "type": "function"
    },
    {
      "inputs": [
        {
          "internalType": "uint256",
          "name": "tokenId",
          "type": "uint256"
        }
      ],
      "name": "ownerOf",
      "outputs": [
        {
          "internalType": "address",
          "name": "",
          "type": "address"
        }
      ],
      "stateMutability": "view",
      "type": "function"
    },
    {
      "inputs": [],
      "name": "renounceOwnership",
      "outputs": [],
      "stateMutability": "nonpayable",
      "type": "function"
    },
    {
      "inputs": [
        {
          "internalType": "address",
          "name": "from",
          "type": "address"
        },
        {
          "internalType": "address",
          "name": "to",
          "type": "address"
        },
        {
          "internalType": "uint256",
          "name": "tokenId",
          "type": "uint256"
        }
      ],
      "name": "safeTransferFrom",
      "outputs": [],
      "stateMutability": "nonpayable",
      "type": "function"
    },
    {
      "inputs": [
        {
          "internalType": "address",
          "name": "from",
          "type": "address"
        },
        {
          "internalType": "address",
          "name": "to",
          "type": "address"
        },
        {
          "internalType": "uint256",
          "name": "tokenId",
          "type": "uint256"
        },
        {
          "internalType": "bytes",
          "name": "_data",
          "type": "bytes"
        }
      ],
      "name": "safeTransferFrom",
      "outputs": [],
      "stateMutability": "nonpayable",
      "type": "function"
    },
    {
      "inputs": [
        {
          "internalType": "address",
          "name": "operator",
          "type": "address"
        },
        {
          "internalType": "bool",
          "name": "approved",
          "type": "bool"
        }
      ],
      "name": "setApprovalForAll",
      "outputs": [],
      "stateMutability": "nonpayable",
      "type": "function"
    },
    {
      "inputs": [
        {
          "internalType": "string",
          "name": "baseURI",
          "type": "string"
        }
      ],
      "name": "setBaseURI",
      "outputs": [],
      "stateMutability": "nonpayable",
      "type": "function"
    },
    {
      "inputs": [
        {
          "internalType": "bytes4",
          "name": "interfaceId",
          "type": "bytes4"
        }
      ],
      "name": "supportsInterface",
      "outputs": [
        {
          "internalType": "bool",
          "name": "",
          "type": "bool"
        }
      ],
      "stateMutability": "view",
      "type": "function"
    },
    {
      "inputs": [],
      "name": "symbol",
      "outputs": [
        {
          "internalType": "string",
          "name": "",
          "type": "string"
        }
      ],
      "stateMutability": "view",
      "type": "function"
    },
    {
      "inputs": [
        {
          "internalType": "uint256",
          "name": "tokenId",
          "type": "uint256"
        }
      ],
      "name": "tokenURI",
      "outputs": [
        {
          "internalType": "string",
          "name": "",
          "type": "string"
        }
      ],
      "stateMutability": "view",
      "type": "function"
    },
    {
      "inputs": [
        {
          "internalType": "address",
          "name": "from",
          "type": "address"
        },
        {
          "internalType": "address",
          "name": "to",
          "type": "address"
        },
        {
          "internalType": "uint256",
          "name": "tokenId",
          "type": "uint256"
        }
      ],
      "name": "transferFrom",
      "outputs": [],
      "stateMutability": "nonpayable",
      "type": "function"
    },
    {
      "inputs": [
        {
          "internalType": "address",
          "name": "newOwner",
          "type": "address"
        }
      ],
      "name": "transferOwnership",
      "outputs": [],
      "stateMutability": "nonpayable",
      "type": "function"
    }
  ],
  "bytecode": "0x608060405234620004c35762001f88803803806200001d81620004c8565b9283398101606082820312620004c35781516001600160401b039190828111620004c357816200004f918501620004ee565b9060209384810151848111620004c357826200006d918301620004ee565b916040820151858111620004c357620000879201620004ee565b825191848311620004ad576000908154936001958686811c96168015620004a2575b89871014620003ac578190601f968781116200044f575b508990878311600114620003eb578592620003df575b5050600019600383901b1c191690861b1782555b805190868211620003cb5785548681811c91168015620003c0575b89821014620003ac5790818684931162000359575b508890868311600114620002f5578492620002e9575b5050600019600383901b1c191690851b1784555b60068054336001600160a01b0319821681179092556040516001600160a01b03909116907f8be0079c531659141344cd1fd0a4f28419497f9722a3daafe3b4186f6b6457e0908490a38151948511620002d5576007548481811c91168015620002ca575b87821014620002b6578381116200026d575b508592851160011462000204579394508492919083620001f8575b50501b916000199060031b1c1916176007555b604051611a169081620005728239f35b015192503880620001d5565b6007815285812093958591601f198316915b8883831062000252575050501062000238575b505050811b01600755620001e8565b015160001960f88460031b161c1916905538808062000229565b85870151885590960195948501948793509081019062000216565b600782528682208480880160051c820192898910620002ac575b0160051c019085905b828110620002a0575050620001ba565b83815501859062000290565b9250819262000287565b634e487b7160e01b82526022600452602482fd5b90607f1690620001a8565b634e487b7160e01b81526041600452602490fd5b01519050388062000130565b8785528985208894509190601f198416865b8c82821062000342575050841162000328575b505050811b01845562000144565b015160001960f88460031b161c191690553880806200031a565b8385015186558b9790950194938401930162000307565b9091508684528884208680850160051c8201928b8610620003a2575b918991869594930160051c01915b828110620003935750506200011a565b86815585945089910162000383565b9250819262000375565b634e487b7160e01b84526022600452602484fd5b90607f169062000105565b634e487b7160e01b83526041600452602483fd5b015190503880620000d6565b8580528a86208994509190601f198416875b8d8282106200043857505084116200041e575b505050811b018255620000ea565b015160001960f88460031b161c1916905538808062000410565b8385015186558c97909501949384019301620003fd565b9091508480528985208780850160051c8201928c861062000498575b918a91869594930160051c01915b82811062000489575050620000c0565b8781558594508a910162000479565b925081926200046b565b95607f1695620000a9565b634e487b7160e01b600052604160045260246000fd5b600080fd5b6040519190601f01601f191682016001600160401b03811183821017620004ad57604052565b81601f82011215620004c3578051906001600160401b038211620004ad5760209062000523601f8401601f19168301620004c8565b93838552828483010111620004c35782906000905b8383831062000558575050116200054e57505090565b6000918301015290565b819350828193920101518282880101520183916200053856fe60806040526004361015610013575b600080fd5b60003560e01c806301ffc9a71461018f57806306fdde0314610186578063081812fc1461017d578063095ea7b31461017457806323b872dd1461016b57806340c10f191461016257806342842e0e1461015957806342966c681461015057806355f804b3146101475780636352211e1461013e57806370a0823114610135578063715018a61461012c5780638da5cb5b1461012357806395d89b411461011a578063a22cb46514610111578063b88d4fde14610108578063c87b56dd146100ff578063e985e9c5146100f65763f2fde38b146100ee57600080fd5b61000e610ddc565b5061000e610d7e565b5061000e610c94565b5061000e610c33565b5061000e610b46565b5061000e610aa0565b5061000e610a76565b5061000e610a11565b5061000e61096e565b5061000e61094f565b5061000e610809565b5061000e610695565b5061000e61066c565b5061000e610517565b5061000e6104ed565b5061000e6103c8565b5061000e61036b565b5061000e610287565b5061000e6101aa565b6001600160e01b031981160361000e57565b503461000e57602036600319011261000e5760206004356101ca81610198565b63ffffffff60e01b166380ac58cd60e01b8114908115610208575b81156101f7575b506040519015158152f35b6301ffc9a760e01b149050386101ec565b635b5e139f60e01b811491506101e5565b918091926000905b828210610239575011610232575050565b6000910152565b91508060209183015181860152018291610221565b9060209161026781518092818552858086019101610219565b601f01601f1916010190565b90602061028492818152019061024e565b90565b503461000e5760008060031936011261036857604051908080546102aa81610f86565b8085529160019180831690811561033e57506001146102e4575b6102e0856102d481870382610785565b60405191829182610273565b0390f35b80809450527f290decd9548b62a8d60345a988386fc84ba6bc95484008f6362f93160ef3e5635b8284106103265750505081016020016102d4826102e06102c4565b8054602085870181019190915290930192810161030b565b8695506102e0969350602092506102d494915060ff191682840152151560051b82010192936102c4565b80fd5b503461000e57602036600319011261000e57602061038a600435611139565b6040516001600160a01b039091168152f35b600435906001600160a01b038216820361000e57565b602435906001600160a01b038216820361000e57565b503461000e57604036600319011261000e576103e261039c565b6024356103ee81610f0e565b916001600160a01b038084169082168114610469576104209361041b913314908115610422575b506110c7565b6115ef565b005b6001600160a01b03166000908152600560205260409020610463915061045c9033905b9060018060a01b0316600052602052604060002090565b5460ff1690565b38610415565b60405162461bcd60e51b815260206004820152602160248201527f4552433732313a20617070726f76616c20746f2063757272656e74206f776e656044820152603960f91b6064820152608490fd5b606090600319011261000e576001600160a01b0390600435828116810361000e5791602435908116810361000e579060443590565b503461000e576104206104ff366104b8565b9161051261050d84336112cf565b6111cb565b611480565b503461000e57604036600319011261000e5761053161039c565b60243560018060a01b0361054a81600654163314610e73565b604051906105578261075c565b6000825283169182156106285761042093816106239461059b61059661059284600052600260205260018060a01b0360406000205416151590565b1590565b611994565b6001600160a01b03831660009081526003602052604090206105bd815461144b565b90556105f6836105d7846000526002602052604060002090565b80546001600160a01b0319166001600160a01b03909216919091179055565b60007fddf252ad1be2c89b69c2b068fc378daa952ba7f163c4a11628f55a4df523b3ef81604051a46116f6565b6112ab565b606460405162461bcd60e51b815260206004820152602060248201527f4552433732313a206d696e7420746f20746865207a65726f20616464726573736044820152fd5b503461000e5761042061067e366104b8565b906040519261068c8461075c565b60008452611231565b503461000e57602036600319011261000e5760043560018060a01b036106c081600654163314610e73565b6106c982610f0e565b6106d283611599565b16600091818352600360205260408320805460018110610738575b6000190190558083526002602052604080842080546001600160a01b0319169055519183907fddf252ad1be2c89b69c2b068fc378daa952ba7f163c4a11628f55a4df523b3ef8285a4f35b610740611417565b6106ed565b50634e487b7160e01b600052604160045260246000fd5b6020810190811067ffffffffffffffff82111761077857604052565b610780610745565b604052565b90601f8019910116810190811067ffffffffffffffff82111761077857604052565b60209067ffffffffffffffff81116107c5575b601f01601f19160190565b6107cd610745565b6107ba565b9291926107de826107a7565b916107ec6040519384610785565b82948184528183011161000e578281602093846000960137010152565b503461000e5760208060031936011261000e5767ffffffffffffffff60043581811161000e573660238201121561000e5761084e9036906024816004013591016107d2565b9161086460018060a01b03600654163314610e73565b8251918211610942575b6108828261087d600754610f86565b611923565b80601f83116001146108bb575081926000926108b0575b50508160011b916000199060031b1c191617600755005b015190503880610899565b90601f198316936108ee60076000527fa66cc928b5edb82af9bd49922954155ab7b0942694bea4ce44661d9a8736c68890565b926000905b86821061092a5750508360019510610911575b505050811b01600755005b015160001960f88460031b161c19169055388080610906565b806001859682949686015181550195019301906108f3565b61094a610745565b61086e565b503461000e57602036600319011261000e57602061038a600435610f0e565b503461000e57602036600319011261000e576001600160a01b0361099061039c565b1680156109b95760005260036020526102e0604060002054604051918291829190602083019252565b60405162461bcd60e51b815260206004820152602a60248201527f4552433732313a2062616c616e636520717565727920666f7220746865207a65604482015269726f206164647265737360b01b6064820152608490fd5b503461000e57600080600319360112610368576006546001600160a01b03811690610a3d338314610e73565b6001600160a01b0319166006556040519082907f8be0079c531659141344cd1fd0a4f28419497f9722a3daafe3b4186f6b6457e08284a3f35b503461000e57600036600319011261000e576006546040516001600160a01b039091168152602090f35b503461000e576000806003193601126103685760405190806001805491610ac683610f86565b8086529282811690811561033e5750600114610aec576102e0856102d481870382610785565b92508083527fb10e2d527612073b26eecdfd717e6a320cf44b4afac2b0732d9fcbe2b7fa0cf65b828410610b2e5750505081016020016102d4826102e06102c4565b80546020858701810191909152909301928101610b13565b503461000e57604036600319011261000e57610b6061039c565b602435801515810361000e576001600160a01b03821691338314610bee5781610bab610bbc9233600052600560205260406000209060018060a01b0316600052602052604060002090565b9060ff801983541691151516179055565b604051901515815233907f17307eab39ab6107e8899845ad3d59bd9653f200f220920489ca2b5937696c3190602090a3005b60405162461bcd60e51b815260206004820152601960248201527f4552433732313a20617070726f766520746f2063616c6c6572000000000000006044820152606490fd5b503461000e57608036600319011261000e57610c4d61039c565b610c556103b2565b6064359167ffffffffffffffff831161000e573660238401121561000e57610c8a6104209336906024816004013591016107d2565b9160443591611231565b503461000e57602036600319011261000e576004356000818152600260205260409020546001600160a01b031615610d2157610cce610fc0565b805115610d0f576102d4610cfb91610d01610ceb6102e09561184c565b60405194859360208501906110b0565b906110b0565b03601f198101835282610785565b50506102e0610d1c61107e565b6102d4565b60405162461bcd60e51b815260206004820152602f60248201527f4552433732314d657461646174613a2055524920717565727920666f72206e6f60448201526e3732bc34b9ba32b73a103a37b5b2b760891b6064820152608490fd5b503461000e57604036600319011261000e57602060ff610dd0610d9f61039c565b610da76103b2565b6001600160a01b0391821660009081526005865260408082209290931681526020919091522090565b54166040519015158152f35b503461000e57602036600319011261000e57610df661039c565b6006546001600160a01b0390610e0f9082163314610e73565b811615610e1f5761042090610ebe565b60405162461bcd60e51b815260206004820152602660248201527f4f776e61626c653a206e6577206f776e657220697320746865207a65726f206160448201526564647265737360d01b6064820152608490fd5b15610e7a57565b606460405162461bcd60e51b815260206004820152602060248201527f4f776e61626c653a2063616c6c6572206973206e6f7420746865206f776e65726044820152fd5b6006549060018060a01b0380911691826bffffffffffffffffffffffff60a01b821617600655167f8be0079c531659141344cd1fd0a4f28419497f9722a3daafe3b4186f6b6457e06000604051a3565b6000908152600260205260409020546001600160a01b03168015610f2f5790565b60405162461bcd60e51b815260206004820152602960248201527f4552433732313a206f776e657220717565727920666f72206e6f6e657869737460448201526832b73a103a37b5b2b760b91b6064820152608490fd5b90600182811c92168015610fb6575b6020831014610fa057565b634e487b7160e01b600052602260045260246000fd5b91607f1691610f95565b6040519060008260075491610fd483610f86565b8083529260019081811690811561105c5750600114610ffd575b50610ffb92500383610785565b565b6007600090815291507fa66cc928b5edb82af9bd49922954155ab7b0942694bea4ce44661d9a8736c6885b8483106110415750610ffb935050810160200138610fee565b81935090816020925483858a01015201910190918592611028565b905060209250610ffb94915060ff191682840152151560051b82010138610fee565b604051906020820182811067ffffffffffffffff8211176110a3575b60405260008252565b6110ab610745565b61109a565b906110c360209282815194859201610219565b0190565b156110ce57565b60405162461bcd60e51b815260206004820152603860248201527f4552433732313a20617070726f76652063616c6c6572206973206e6f74206f7760448201527f6e6572206e6f7220617070726f76656420666f7220616c6c00000000000000006064820152608490fd5b6000818152600260205260409020546001600160a01b031615611171576000908152600460205260409020546001600160a01b031690565b60405162461bcd60e51b815260206004820152602c60248201527f4552433732313a20617070726f76656420717565727920666f72206e6f6e657860448201526b34b9ba32b73a103a37b5b2b760a11b6064820152608490fd5b156111d257565b60405162461bcd60e51b815260206004820152603160248201527f4552433732313a207472616e736665722063616c6c6572206973206e6f74206f6044820152701ddb995c881b9bdc88185c1c1c9bdd9959607a1b6064820152608490fd5b91610ffb93916106239361124861050d84336112cf565b611253838383611480565b6117b7565b60809060208152603260208201527f4552433732313a207472616e7366657220746f206e6f6e20455243373231526560408201527131b2b4bb32b91034b6b83632b6b2b73a32b960711b60608201520190565b156112b257565b60405162461bcd60e51b8152806112cb60048201611258565b0390fd5b6000828152600260205260409020546001600160a01b031615611365576112f582610f0e565b9160018060a01b0390818316928285168414948515611334575b5050831561131e575b50505090565b61132a91929350611139565b1614388080611318565b6001600160a01b0316600090815260056020526040902091945060ff9161135b9190610445565b541692388061130f565b60405162461bcd60e51b815260206004820152602c60248201527f4552433732313a206f70657261746f7220717565727920666f72206e6f6e657860448201526b34b9ba32b73a103a37b5b2b760a11b6064820152608490fd5b156113c657565b60405162461bcd60e51b8152602060048201526024808201527f4552433732313a207472616e7366657220746f20746865207a65726f206164646044820152637265737360e01b6064820152608490fd5b50634e487b7160e01b600052601160045260246000fd5b6001811061143e575b6000190190565b611446611417565b611437565b600190600119811161145b570190565b6110c3611417565b8019603011611473575b60300190565b61147b611417565b61146d565b9061148a83610f0e565b6001600160a01b038381169290918216839003611546576114d961151d928216946114b68615156113bf565b6114bf87611599565b6001600160a01b0316600090815260036020526040902090565b6114e3815461142e565b90556001600160a01b0381166000908152600360205260409020611507815461144b565b90556105d7856000526002602052604060002090565b7fddf252ad1be2c89b69c2b068fc378daa952ba7f163c4a11628f55a4df523b3ef6000604051a4565b60405162461bcd60e51b815260206004820152602560248201527f4552433732313a207472616e736665722066726f6d20696e636f72726563742060448201526437bbb732b960d91b6064820152608490fd5b600081815260046020526040812080546001600160a01b03191690556001600160a01b036115c683610f0e565b167f8c5be1e5ebec7d5bd14f71427d1e84f3dd0314c0f7b2291e5b200ac8c7c3b92582604051a4565b600082815260046020526040902080546001600160a01b0319166001600160a01b0383161790556001600160a01b038061162884610f0e565b169116907f8c5be1e5ebec7d5bd14f71427d1e84f3dd0314c0f7b2291e5b200ac8c7c3b9256000604051a4565b9081602091031261000e575161028481610198565b610284939260809260018060a01b03168252600060208301526040820152816060820152019061024e565b6001600160a01b0391821681529116602082015260408101919091526080606082018190526102849291019061024e565b3d156116f1573d906116d7826107a7565b916116e56040519384610785565b82523d6000602084013e565b606090565b909190803b156117af57611728602091600093604051948580948193630a85bd0160e11b998a8452336004850161166a565b03926001600160a01b03165af16000918161177f575b506117715761174b6116c6565b8051908161176c5760405162461bcd60e51b8152806112cb60048201611258565b602001fd5b6001600160e01b0319161490565b6117a191925060203d81116117a8575b6117998183610785565b810190611655565b903861173e565b503d61178f565b505050600190565b92909190823b156117ea57611728926020926000604051809681958294630a85bd0160e11b9a8b85523360048601611695565b50505050600190565b906117fd826107a7565b61180a6040519182610785565b828152809261181b601f19916107a7565b0190602036910137565b908151811015611836570160200190565b634e487b7160e01b600052603260045260246000fd5b80156118e6576000818181805b6118bc5750611867816117f3565b935b6118735750505090565b61187c9061142e565b90600a906118a7611897611891848406611463565b60ff1690565b60f81b6001600160f81b03191690565b841a6118b38487611825565b53049081611869565b91506001600a9160001981146118d9575b01910480849291611859565b6118e1611417565b6118cd565b506040516040810181811067ffffffffffffffff821117611916575b60405260018152600360fc1b602082015290565b61191e610745565b611902565b601f811161192f575050565b600090600782527fa66cc928b5edb82af9bd49922954155ab7b0942694bea4ce44661d9a8736c688906020601f850160051c8301941061198a575b601f0160051c01915b82811061197f57505050565b818155600101611973565b909250829061196a565b1561199b57565b60405162461bcd60e51b815260206004820152601c60248201527f4552433732313a20746f6b656e20616c7265616479206d696e746564000000006044820152606490fdfea26469706673582212206ce243fb896022505ee6fa2b16467dcb12251d843582fbf9982ad8d50a04a62c64736f6c634300080f0033",
  "linkReferences": {},
  "deployedLinkReferences": {}
}